:10000000000001203902000091020000930200006C
:100010009502000097020000990200000000000015
:100020000000000000000000000000009B02000033
:100030009D020000000000009F020000A1020000DD
:1000400079410000A7020000ED3D0000FD370000EF
:10005000AD020000AF020000392D0000B302000025
:10006000B5020000B7020000B9020000BB020000A8
:10007000BD020000BF020000C1020000C302000078
:10008000C5020000C7020000C9020000CB02000048
:10009000CD020000CF020000D1020000D302000018
:1000A000D5020000D7020000D9020000DB020000E8
:1000B000DD020000DF020000A3020000A302000036
:1000C000E1020000E3020000E5020000E702000098
:0C00D0007D5A0000EB020000ED02000071
:1000DC00354936480A1A02D0072291438D463449D5
:1000EC0034480A1A06D00722914381F30988022268
:1000FC0082F3148830483149314A00F044F83148D1
:10010C003149324A00F03FF831483249324A00F066
:10011C003AF832483249334A00F035F8324833491C
:10012C00334A00F030F833483349344A00F02BF8A6
:10013C0033483449344A00F026F834483449002214
:10014C0000F02CF833483449002200F027F83348EB
:10015C003349091A082902DB002202604160314A46
:10016C0090471F481F49884205D00268043003B4E9
:10017C00904703BCF7E700208646EC4600200021A0
:10018C00294A9047FEE7884207D0521A05D00378D7
:10019C0001300B700131013AF9D17047884202D01D
:1001AC0002700130FAE770470000012000F80020CF
:1001BC00000001200000012010A9000048000020D0
:1001CC003C010020F0020000F00200009C940000B2
:1001DC0010A90000480000204800002014950000E1
:1001EC00149500001495000014950000149500005F
:1001FC0014950000149500001495000010A900003F
:10020C0004AA00003C0100203C0100203C0100201D
:10021C00D8120020D8120020DC120020DC120020A2
:10022C00DC1400205D020000097F00000F484FF035
:10023C000701884385460E4880470E48016841F403
:10024C0070010160BFF34F8FBFF36F8FFFF740BF9B
:10025C0009480A490A4A884207D0521A05D003783D
:10026C0001300B700131013AF9D1704700000120C7
:10027C00BD44000088ED00E0CC940000000000209C
:10028C0048000020FEE7FEE7FEE7FEE7FEE7FEE79C
:10029C00FEE7FEE7FEE7FEE7FEE7FEE7FEE7FEE72A
:1002AC00FEE7FEE7FEE7FEE7FEE7FEE7FEE7FEE71A
:1002BC00FEE7FEE7FEE7FEE7FEE7FEE7FEE7FEE70A
:1002CC00FEE7FEE7FEE7FEE7FEE7FEE7FEE7FEE7FA
:1002DC00FEE7FEE7FEE7FEE7FEE7FEE7FEE7FEE7EA
:0402EC00FEE700BF6A
:1002F00000487047D012002082B00190019B01227B
:100300005A7200BF02B0704700B583B04FF0FF33A0
:10031000019300F0D1FF0421084800F04BFD01904B
:10032000019B002B03DA0649412001F044F9034800
:10033000FFF7E2FF00BF03B05DF804FB48000020B8
:100340001495000000B583B001900091019B1B68DB
:100350001B6800990198984700BF03B05DF804FB43
:1003600000B583B00190019B1B685B6801989847BA
:1003700000BF03B05DF804FB82B001900B468DF81E
:100380000330019B9DF803201A7200BF02B0704732
:1003900082B00190019B1B7A184602B0704782B070
:1003A0000190019B01225A7200BF02B0704782B0D7
:1003B0000190019B5B7A184602B0704710B487B079
:1003C00001900091019B009A53E8004F44EA02001B
:1003D00043E8000191F0000FF6D1059404900391D9
:1003E000049B184607B05DF8044B704710B487B003
:1003F00001900091019B009A53E8004F04EA02002B
:1004000043E8000191F0000FF6D1059404900391A8
:10041000059B184607B05DF8044B704700B583B0E4
:10042000019001210198FFF7C9FF0346184603B068
:100430005DF804FB00B583B0019000210198FFF73F
:10044000D5FF0346184603B05DF804FB00B587B03E
:1004500001901F4BFF229A601D4B00221A601C4B1B
:1004600000225A601A4B0022C3F81824184B0022AD
:10047000C3F81424164B002283F81C24154801F0FD
:10048000FBFD0490049B002B01D0049B1CE0124A4E
:10049000124BD31ADB080393002305930FE0059A50
:1004A00013465B0013449B001A460D4B1344029302
:1004B000059B9AB2029B1A80059B01330593059A0E
:1004C000039B9A42EBD30023184607B05DF804FB68
:1004D0000C020020C8950000CC9400009C94000001
:1004E00000000020024A034BD31ADB08184670476D
:1004F000CC9400009C94000000B587B001900B469E
:100500008DF803309DF80330002B23D0FFF7EAFF6E
:1005100004900023059317E0059A13465B001344EB
:100520009B001A460E4B13440393039B5B881A46A9
:10053000019B1B689A4204D1019B059A1A60002313
:1005400009E0059B01330593059A049B9A42E3D386
:10055000052300E00023184607B05DF804FB00BF48
:100560000000002000B585B001900B468DF80330E7
:100570009DF8032001AB11461846FFF7BDFF034667
:10058000002B07D1019BDB00054A13440393039B17
:100590001B6800E00023184605B05DF804FB00BFAF
:1005A0009C94000084B001900B468DF80330019BB1
:1005B000DB00174A134402939DF80330013B032BE1
:1005C0001CD801A252F823F0D9050000E105000073
:1005D000E9050000F305000002238DF80F3011E05B
:1005E00004238DF80F300DE0029B1B798DF80F303E
:1005F00008E0029B5B798DF80F3003E000238DF853
:100600000F3000BF9DF80F30184604B0704700BF90
:100610009C94000000B589B04148FFF7FFFE4148B7
:10062000FFF7FCFE404B5B6807933F4B9B680493CE
:10063000079A049B134002339B003B4A1344043344
:1006400006931BE0079B01330793069B5B88C3F36C
:1006500089139BB21A46069B1B88C3F389139BB26E
:1006600013441A46079B13440793079A049B1340AD
:1006700002339B002C4A134404330693069B1B78D9
:1006800003F00303DBB2002BDCD00023059311E061
:10069000079B5A1C0792049A1340059A92006946D8
:1006A0000A44214902339B000B445B681360059B9D
:1006B00001330593059B012BEAD99DF80030C3F364
:1006C0000103DBB2012B0CD0022B14D1BDF8023098
:1006D000C3F389139BB203339B08079A1344079310
:1006E0000FE0BDF80030C3F38313DBB21A46079B5B
:1006F0001344079305E00D4940F24D1000F05BFFF5
:1007000000BF0848FFF796FE0390039B002B02D022
:10071000054A079B536000BF09B05DF804FB00BFAA
:1007200024060020200600200C020020EC9500008A
:1007300010B586B00390029101920093039B1B0CAD
:10074000ADF81630BDF81640FFF7CCFE03469C42CC
:1007500004D323494FF4B27000F02DFF009B5A1CC4
:10076000089B1340BDF816201E4902339B000B4422
:100770005A60009A089B134002339B00194A1344A5
:1007800004330493039B1B0903F00103D9B2049AB9
:10079000137861F382031370039B03F00703D9B24C
:1007A000049A137861F3C5031370019B03F00F03E0
:1007B000D9B2049A138861F389131380029BC3F39F
:1007C0001501049A136861F39F231360049A137848
:1007D000012161F30103137000BF06B010BD00BF1B
:1007E000EC9500000C02002000B589B0019000914A
:1007F000019B023306930223059301238DF81330E6
:10080000002000F091FE214B1A68009B1A601F4BDC
:100810009A681E4B59681D4B1B68CB1A1344013351
:100820000793069A059B134403930BE0FFF7F2FE30
:10083000164B9A68154B5968144B1B68CB1A134416
:1008400001330793039A079B9A42EFD80F4B1A681C
:100850000E4B9B68134002339B000C4A1344043335
:100860000293029A137843F003031370074B1A683C
:10087000069B1344054A1360002000F069FE9DF8B2
:100880001330184609B05DF804FB00BF0C020020CD
:1008900000B58BB005900491039202931F4B9B68A7
:1008A000079306AB19460298FFF79EFF0346002BFD
:1008B00024D0069B023309930023089311E0089B80
:1008C0009B00039A1A44099B591C099107990B40F4
:1008D0001268124902339B000B445A60089B013393
:1008E0000893089A029B9A42E9D3069A079B0093C1
:1008F0001346029A04990598FFF71AFF074B93F8DD
:100900001C34002B05D000BF00F064F80346002B18
:10091000FAD100BF0BB05DF804FB00BF0C02002051
:1009200000B583B001900091002300220099019846
:10093000FFF7AEFF00BF03B05DF804FB00B587B062
:10094000039002910192019B059305AA012302994C
:100950000398FFF79DFF00BF07B05DF804FB00B5EB
:1009600087B00390029101920093019B0493009B36
:10097000059304AA022302990398FFF789FF00BF99
:1009800007B05DF804FB00B589B0039002910192B5
:100990000093019B0493009B05930A9B06930B9B7A
:1009A000079304AA042302990398FFF771FF00BF7D
:1009B00009B05DF804FB0000054B5A68044B1B6846
:1009C0009A420CBF01230023DBB21846704700BFD8
:1009D0000C02002000B597B0FFF7EEFF0346002B96
:1009E00001D00023ABE1AB4B0022C3F81824BFF3C6
:1009F0004F8FA84B5B681593A64B9B680E93159A77
:100A00000E9B134002339B00A24A134404331493F9
:100A1000002313930023129300230D931BE0159BD7
:100A200001331593149B5B88C3F389139BB21A4659
:100A3000149B1B88C3F389139BB213441A46159B5E
:100A400013441593159A0E9B134002339B00914A51
:100A5000134404331493149B1B7803F00303DBB299
:100A6000002BDCD00023119311E0159B5A1C15922A
:100A70000E9A1340119A920069460A44854902333E
:100A80009B000B445B681360119B01331193119B16
:100A9000012BEAD99DF8003003F00303DBB2022BEF
:100AA00040F09C80BDF80230C3F389139BB20C93D5
:100AB000BDF80230C3F389139BB2502B28BF5023DB
:100AC0009BB20B930B9BC3F309039AB2BDF80230A0
:100AD00062F38F13ADF802300B9B08330A939DF835
:100AE0000030C3F3C203DBB20D930A996A4801F0E8
:100AF000CEFA1390139B002B00F0E080139801F0C6
:100B000056FB6946129B0822139801F0F9FB129BD1
:100B100008331293159BDA430E9B134001339B005D
:100B200009930B9A099B9A4242D9099B002B08D042
:100B3000159A0E9B134002339B00564A134404330C
:100B400000E0564B0893099B002B02D0099BDBB2B7
:100B500001E00B9BDBB28DF81F30099B002B01D00D
:100B60004E4B00E000230693099B002B06D00B9B05
:100B7000DAB2099BDBB2D31ADBB200E000238DF8B6
:100B800017309DF81F20129B0899139801F0B8FBAD
:100B90009DF81F30129A13441293069B002B16D017
:100BA0009DF81720129B0699139801F0A9FB0EE0FF
:100BB000159A0E9B134002339B00364A13440433AC
:100BC0000493129B0B9A0499139801F099FB0C9BC8
:100BD00003339B08159A134415936FE09DF800307A
:100BE00003F00303DBB2012B5AD1BDF80030C3F38D
:100BF0008313DBB2062B28BF0623DAB2BDF8003020
:100C000062F38913ADF80030BDF80030C3F38313ED
:100C1000DBB2023303939DF80030C3F3C203DBB2AF
:100C20000D93039B9B0019461B4801F030FA13906B
:100C3000139B002B42D0139801F0B9FA6946129B1E
:100C40000822139801F05CFB129B083312930023D7
:100C5000119314E0159B5A1C15920E9A13400233FF
:100C60009B000C4A1344191D129B0422139801F097
:100C700047FB129B04331293119B01331193BDF870
:100C80000030C3F38313DBB21A46119B9342E1D3C6
:100C900014E000BF0C020020C895000018020020DC
:100CA0009DF8003003F00303DBB2032B06D1264B83
:100CB000D3F81834002B01D1002340E0139B002B04
:100CC00037D0214BD3F8103410931F4BD3F818347E
:100CD000002B1AD0139801F079FA2AE000238DF83E
:100CE0003F301098FFF763FB0346002B02D001232F
:100CF0008DF83F309DF83F30002B03D013991098AA
:100D0000FFF720FB109B5B681093109B002BE5D135
:100D1000139801F05BFA002000F006FC0A4BD3F8B0
:100D20001834002B02D1084A159B5360002000F0B4
:100D30000FFCFFF741FE034683F00103DBB21846C8
:100D400017B05DF804FB00BF0C02002000B585B0B1
:100D50000023039322E0164BD3F8103402930123AF
:100D60008DF807300EE00298FFF712FB03461A4693
:100D7000039B934203D100238DF8073005E0029BCB
:100D80005B680293029B002BEDD19DF80730002B8E
:100D900001D0039B07E0039B01330393039B092BC3
:100DA000D9DD4FF0FF33184605B05DF804FB00BFF6
:100DB0000C02002000B585B001900B468DF8033081
:100DC000FFF7C4FF0390039BB3F1FF3F01D1039BE7
:100DD0001EE0039BDBB219460198FFF7CDFA0E4BDC
:100DE000D3F81034002B07D10B4A019BC2F8103402
:100DF000019B00225A600AE0074BD3F810345A686E
:100E0000019B5A60044BD3F81034019A5A60039B3B
:100E1000184605B05DF804FB0C02002000B583B055
:100E20000C4BD3F8103401930A4B012283F81C2495
:100E300008E00198FFF7B3FA0198FFF791FA019BD8
:100E40005B680193019B002BF3D100BF03B05DF8F9
:100E500004FB00BF0C02002010B582B0019000918D
:100E6000019BDB7983F00103DBB2002B28D0019BCF
:100E70001B7A002B12D0019B9B881A46019B9B7901
:100E800019461046FFF78EFB03461A460E4B53F8E1
:100E900022301A460D49009800F0C0FC019B9B7956
:100EA0001A460B4B53F82240019B9B8800211846A1
:100EB000FFF758FB034622460649009800F0AEFCB7
:100EC00000BF02B010BD00BF680000200097000006
:100ED000540000200497000000B585B003900291F3
:100EE00013468DF80730039BDB7983F00103DBB2F7
:100EF000002B0FD0039B1B7A002B06D00D4B1B68D9
:100F00001A460D49029800F089FC0C49029800F03D
:100F100085FC07E09DF80730002B03D007490298B5
:100F200000F07CFC029800F057FC00BF05B05DF8B3
:100F300004FB00BF6800002000970000109700002D
:100F400030B58BB007900691059204930E9B1B7BE6
:100F50008DF827300E9B00221A730E990498FFF724
:100F60007BFF059B062B7FD801A252F823F000BF20
:100F70008D0F0000970F0000A70F0000BB0F0000AF
:100F8000D90F0000011000003110000007990E98E1
:100F900000F044FC69E0069B1B681A4607990E980E
:100FA00000F03CFC61E0069B1A68069B04331B685A
:100FB00007990E9800F032FC57E0069B1A68069BD2
:100FC00004331968069B08331B6800930B46079986
:100FD0000E9800F023FC48E0069B1968069B04333A
:100FE0001868069B08331B68069A0C321268019237
:100FF000009303460A4607990E9800F00FFC34E070
:10100000069B1868069B04331C68069B08331B6804
:10101000069A0C3212680699103109680291019201
:1010200000932346024607990E9800F0F7FB1CE058
:10103000069B1C68069B04331D68069B08331B68CF
:10104000069A0C3212680699103109680698143015
:10105000006803900291019200932B462246079963
:101060000E9800F0DBFB00E000BF00220E99049810
:10107000FFF732FF0E9B9DF827201A7300BF0BB0BD
:1010800030BD00BF00B587B003900291019200937C
:10109000029B082B5CD8009B1B7B8DF81330009BB8
:1010A00000221A7300990198FFF7D6FE00230593DA
:1010B00014E0059A029B9A4209D2039A059B1344B5
:1010C0001B781A462449009800F0A8FB03E0234946
:1010D000009800F0A3FB059B01330593059B072BAC
:1010E000E7D91F49009800F099FB0023059322E0FF
:1010F000059A029B9A4217D2039A059B13441B78C8
:101100008DF812309DF81230184608F0E9F80346C1
:10111000002B02D09DF8123000E02E231A46114910
:10112000009800F07BFB03E00F49009800F076FB8D
:10113000059B01330593059B072BD9D90122009903
:101140000198FFF7C9FE009B9DF813201A7300E079
:1011500000BF07B05DF804FB149700001C97000067
:1011600020970000249700002897000000B5A1B048
:101170000590049103920293049801F018F8039BE0
:101180001593029B16930023179300238DF860306C
:1011900000231993229B1A9300231F930FA91F9BCF
:1011A0000822049801F0BEF808231F93119B1293A4
:1011B000109B9BB2ADF84C3000238DF850309DF859
:1011C0003C3003F00303DBB2012B32D10F9BC3F39E
:1011D00095231D939DF83C30C3F3C203DBB28DF819
:1011E0004E309DF83C30C3F38003DBB2002B14BFBC
:1011F00001230023DBB28DF84F30BDF83C30C3F340
:101200008313DBB21C931C9B9A0009A91F9B0498B3
:1012100001F088F81C9B9B001F9A13441F9312AA8D
:1012200009A915AB009313461C9A1D98FFF788FE79
:101230003BE09DF83C3003F00303DBB2022B34D1DA
:10124000BDF83E30C3F389139BB21E939DF83C302A
:10125000C3F3C203DBB28DF84E309DF83C30C3F3CC
:101260008003DBB2002B14BF01230023DBB28DF817
:101270004F301E9B082B28BF08231B9307A91F9BD9
:101280001B9A049801F04EF81F9A1B9B13441F935E
:101290001E9A1B9BD31A1E9315AB12AA07A81B9963
:1012A000FFF7F0FE1E9B002BE3D1049800F08EFFA9
:1012B00000BF21B05DF804FB08B503F0DDF800BF06
:1012C00008BD00B589B0039002910192019B002BEB
:1012D00022D0002307930A230693029A079B134404
:1012E000019A1946002003F079F80590079A059BAA
:1012F00013440793019A059BD31A0193059B002B76
:1013000005D1069B013B0693069B002B03D0019B56
:10131000002BE2D100E000BF00BF09B05DF804FB84
:1013200000B585B003900291054B00934023054A18
:1013300002990398FFF71AFF00BF05B05DF804FBA0
:10134000C31200002C06002082B0019000BF02B042
:10135000704782B0019000BF02B0704700B589B0FD
:10136000039002910192029B9BB2ADF81430019B55
:101370000693039B079305AB1A46002144F2010034
:1013800000F050F800BF09B05DF804FB86B0039090
:101390000291019201238DF817309DF81730204AF1
:1013A000039B13601E4A029B53601D4A019B93607E
:1013B000039B44F20102934213D0039B44F20202C6
:1013C000934222D1019B164AD360154BDB681B88E0
:1013D0001A46134B9A61124BDB685B68104AD36163
:1013E00013E0019B0E4A13610D4B1B699B680C4A6D
:1013F00053610B4B1B691B881A46094B9A61084BBA
:101400001B695B68064AD36100BF72B600BF9DF8D6
:101410001730DBB2002BFAD162B600BF06B07047BE
:101420006C06002030B589B0059004910392FFF757
:10143000F5FC00BFFFF7CEFA0346002BFAD1059B5F
:1014400044F20102934214D0059B44F202029342FB
:101450002DD1039B0793234B1B881B0443F00100F2
:10146000079B5B681A46079B1B881F49FFF777FAA3
:1014700028E0039B06931B4B1B881B0443F00104CD
:10148000069B9D68069B9B68184600F05DFF03461F
:101490001946069B5B681A46069B1B8801930092BF
:1014A0000B462A4611492046FFF76DFA0AE00D4B1C
:1014B0001B881B0443F00103049A0D491846FFF7EB
:1014C0003DFA00BF0B4B1B6803F00103002B00D05B
:1014D000FFDE039A04990598FFF758FF00BF09B093
:1014E00030BD00BF00000020389700005497000076
:1014F0006C970000F0ED00E072B6034B1B680133FF
:10150000014A136000BF70478C060020054B1B6822
:10151000013B044A1360034B1B68002B00D162B6E9
:1015200000BF70478C06002000B583B0019000F02A
:1015300025F80346012B03D00449432000F03BF873
:10154000FFF7DAFF00BF03B05DF804FB84970000EB
:1015500000B583B003468DF8073000F00FF803465E
:10156000012B03D00449512000F025F8FFF7CEFFEE
:1015700000BF03B05DF804FB8497000084B0EFF374
:1015800005830193019BC3F308030393039B002B83
:101590000DD1EFF314830093009B0293029B03F0A1
:1015A0000103002B0CBF01230023DBB200E0012369
:1015B000184604B0704700B585B003460091ADF8F9
:1015C0000630BDF80630ADF80830009B039302AB3F
:1015D0001A46002144F20200FFF724FF00BF05B0C5
:1015E0005DF804FB00B583B001900B468DF8033025
:1015F000019B002B03D10849AF20FFF7DCFF019BC3
:10160000DA689DF803300199098A01FB03F313445A
:10161000184603B05DF804FB2898000000B583B0BD
:1016200001900091019B002B03D10849BC20FFF7DA
:10163000C2FF009B019AD2689B1A019A128AB3FBDF
:10164000F2F3DBB2184603B05DF804FB2898000003
:1016500000B585B00190019B002B01D10E2348E01D
:10166000019B1B68002B03D12449C620FFF7A3FF71
:10167000019B5B68002B03D12049C720FFF79BFF2C
:10168000019B9B68002B03D11C49C820FFF793FFE7
:10169000019BDB68002B03D11849C920FFF78BFFA2
:1016A000019B1B8A002B03D11449CA20FFF783FF3B
:1016B000019B9A68019B5B68D31A8DF80F30019BE0
:1016C0001B68019A52681A6007E0019B1A68136848
:1016D000591C11609DF80F201A709DF80F305A1E8A
:1016E0008DF80F20002BF0D1019B1B6800221A718E
:1016F0000023184605B05DF804FB00BF28980000E1
:1017000000B585B00190019B002B03D11B49EC2053
:10171000FFF751FF002303930020FFF705FF019B14
:101720001B681A68019B5B689A421FD9019B1B6862
:101730001A68013A1A601B681B7819460198FFF76E
:1017400051FF0390019B9A68019B1B681B68D31A89
:101750008DF80B30019B1B681B799DF80B209A427A
:1017600004D9019B1B689DF80B201A710020FFF71C
:10177000EFFE039B184605B05DF804FB28980000B7
:1017800010B584B001900091019B002B04D1114948
:101790004FF48870FFF70FFF009B002B04D10D4919
:1017A00040F21110FFF707FF009B03930020FFF7A3
:1017B000BBFE019B1B681C68621C1A6003990198A0
:1017C000FFF72CFF034623700020FFF7C1FE00BF88
:1017D00004B010BD2898000000B583B00190019BB3
:1017E000002B03D10C493120FFF7E5FE019B9B68DC
:1017F000002B0CD0019B5B69019A1069019A11685A
:10180000019A92689847019B00229A6000E000BF0D
:1018100003B05DF804FB00BFC09800000EB400B533
:1018200084B00190019B002B03D118494220FFF79F
:10183000C2FE019B5B69002B03D114494320FFF7D3
:10184000BAFE019B1B68002B03D110494420FFF70F
:10185000B2FE019B5B68002B03D10C494520FFF7CA
:10186000AAFE059B002B0AD00023039306AB03932B
:1018700003AB1A460599019800F0B0F900E000BFEB
:1018800004B05DF804EB03B0704700BFC0980000DF
:1018900000B583B001900B468DF80330019B1A68A8
:1018A000019B9B68581C0199886013449DF8032094
:1018B0001A70019B9A68019B5B689A4202D3019857
:1018C000FFF78AFF00BF03B05DF804FB00B587B0E7
:1018D000039002910192009300230593009B03F073
:1018E0000103002B24D00BE0029B01330293059BE4
:1018F000013305939DF8133019460398FFF7C8FF8D
:10190000029B1B788DF813309DF81330002BEBD120
:1019100006E0019B013B019320210398FFF7B8FFEC
:10192000019A059B9A422ED9019B002BF1D12AE006
:10193000029B002B0BD0029807F080FD059006E07B
:10194000019B013B019320210398FFF7A1FF019A1E
:10195000059B9A420FD9019B002BF1D10BE0029B12
:1019600001330293059B013305939DF8133019460B
:101970000398FFF78DFF029B1B788DF813309DF8BD
:101980001330002BEBD100BF07B05DF804FB000063
:1019900000B589B00390029101920093029B0793D6
:1019A0000123069307E0079A019BB2FBF3F3079329
:1019B000069B01330693079A019B9A42F3D2009A41
:1019C000069B9A4201D9009B06930B9B03F00103EF
:1019D000002B22D10A9B002B1FD00B9B03F002038C
:1019E000002B06D0009B002B03D130238DF817303D
:1019F00002E020238DF8173008E00A9B013B0A9390
:101A00009DF8173019460398FFF742FF0A9B002BF9
:101A100003D0069A0A9B9A42EFD301230793009BB7
:101A2000012B03D9009B013B009309E0029A079B1D
:101A3000B2FBF3F30493049A019B9A4200D205E0AF
:101A4000079B019A02FB03F30793E8E7029A079BBF
:101A5000B2FBF3F30493049B079A02FB03F3029A8D
:101A6000D31A0293154A049B13441B781946039812
:101A7000FFF70EFF079A019BB2FBF3F30793079B57
:101A8000002BE3D10B9B03F00103002B11D00A9B29
:101A9000002B0ED006E00A9B013B0A9320210398FD
:101AA000FFF7F6FE0A9B002B03D0069A0A9B9A4288
:101AB000F1D300BF09B05DF804FB00BFE09900005E
:101AC00000B589B00590049103920293049B002B0A
:101AD000B8BF5B4206930123079307E0039B069A76
:101AE00092FBF3F30693079B01330793039B069A3C
:101AF0009A42F3DA029A079B9A4201D9029B079312
:101B00000A9B002B0AD0049B002B04DB0B9B03F0E9
:101B10000403002B02D00A9B013B0A930B9B03F0AA
:101B20000203002B02D0029B002B16D00B9B03F06C
:101B30000103002B11D10A9B002B0ED006E00A9B5B
:101B4000013B0A9320210598FFF7A2FE0A9B002B78
:101B500003D0079A0A9B9A42F1D3049B002B07DA21
:101B6000049B5B4204932D210598FFF791FE08E04A
:101B70000B9B03F00403002B03D02B210598FFF7E8
:101B800087FE0B9B03F00203002B19D00B9B03F085
:101B90000103002B14D1029B002B11D10A9B002BB7
:101BA0000ED006E00A9B013B0A9330210598FFF70F
:101BB0006FFE0A9B002B03D0079A0A9B9A42F1D32F
:101BC00004990B9B01930A9B0093029B039A05982F
:101BD000FFF7DEFE00BF09B05DF804FB00B58FB073
:101BE000059004910392059B002B04D1C8494FF442
:101BF0009F70FFF7E0FC059B5B69002B04D1C44993
:101C00004FF4A070FFF7D7FC059B1B68002B04D195
:101C1000BF4940F24110FFF7CEFC059B5B68002BEB
:101C200004D1BB494FF4A170FFF7C5FC049B002B06
:101C300000F0ED81049B1B788DF83730049B013355
:101C400004939DF83730002B00F0D8819DF8373091
:101C5000252B40F0C78100230A9301230C93049B9A
:101C60001B788DF837309DF837302D2B04D0302B72
:101C70000AD02B2B10D017E00A9B43F001030A93E4
:101C8000049B0133049312E00A9B43F002030A937E
:101C9000049B013304930AE00A9B43F004030A9374
:101CA000049B0133049302E000230C9300BF0C9BC0
:101CB000002BD4D1002309939DF837302A2B0CD167
:101CC000039B1B68191D039A11601B68099A134432
:101CD0000993049B013304931AE0049B1B788DF84D
:101CE00037309DF837302F2B12D99DF83730392BEC
:101CF0000ED8049B01330493099A13469B001344A6
:101D00005B001A469DF837301344303B0993D3E704
:101D100000230B93049B1B788DF837309DF83730E8
:101D20002E2B1DD1049B01330493049B1B788DF84B
:101D300037309DF837302F2B12D99DF83730392B9B
:101D40000ED8049B013304930B9A13469B00134453
:101D50005B001A469DF837301344303B0B93E4E7A1
:101D6000049B1B788DF837309DF837306C2B03D0EF
:101D70009DF83730682B07D1049B01330493049BF3
:101D80001B788DF83730EFE79DF83730253B532B24
:101D900000F2238101A252F823F000BFD11F0000FE
:101DA000DB1F0000DB1F0000DB1F0000DB1F00004B
:101DB000DB1F0000DB1F0000DB1F0000DB1F00003B
:101DC000DB1F0000DB1F0000DB1F0000DB1F00002B
:101DD000DB1F0000DB1F0000DB1F0000DB1F00001B
:101DE000DB1F0000DB1F0000DB1F0000DB1F00000B
:101DF000DB1F0000DB1F0000DB1F0000DB1F0000FB
:101E0000DB1F0000DB1F0000DB1F0000DB1F0000EA
:101E1000DB1F0000DB1F0000DB1F0000DB1F0000DA
:101E2000DB1F0000DB1F0000DB1F0000DB1F0000CA
:101E3000DB1F0000DB1F0000DB1F0000DB1F0000BA
:101E4000DB1F0000DB1F0000DB1F0000DB1F0000AA
:101E5000DB1F0000DB1F0000DB1F0000DB1F00009A
:101E6000DB1F0000DB1F00005D1F0000DB1F000008
:101E7000DB1F0000DB1F0000DB1F0000DB1F00007A
:101E8000DB1F0000DB1F0000DB1F0000DB1F00006A
:101E9000DB1F0000ED1E0000151F0000DB1F00000F
:101EA000DB1F0000DB1F0000DB1F0000151F000010
:101EB000DB1F0000DB1F0000DB1F0000DB1F00003A
:101EC000DB1F0000DB1F00009D1F0000DB1F000068
:101ED000DB1F0000811F0000DB1F0000391F000016
:101EE000DB1F0000DB1F00005D1F0000039B1B6861
:101EF000191D039A11601B680C930C9B8DF82330FD
:101F00009DF8233019460598FFF7C2FC66E000BF34
:101F10004C990000039B1B68191D039A11601B68F4
:101F20000C930A9B0193099B00930B9B0A220C992B
:101F30000598FFF7C5FD51E0039B1B68191D039A27
:101F400011601B680C930C990A9B0193099B0093E9
:101F50000B9B0A220598FFF71BFD3FE0039B1B68C4
:101F6000191D039A11601B680C930C990A9B01932D
:101F7000099B00930B9B10220598FFF709FD2DE0AC
:101F8000039B1B68191D039A11601B6807930A9B2A
:101F9000099A07990598FFF799FC1FE0039B1B68B6
:101FA000191D039A11601B680C9330210598FFF7E7
:101FB0006FFC78210598FFF76BFC0C9900230193C7
:101FC00008230093082310220598FFF7E1FC05E0A1
:101FD00025210598FFF75CFC00E000BF049B01335E
:101FE000049305E09DF8373019460598FFF750FC3B
:101FF000049B1B78002B7FF41DAE00E000BF059B07
:102000001B7B002B04D00598FFF7E6FB00E000BF28
:102010000FB05DF804FB00BF10B487B001900091D1
:10202000019B009A53E8004F04EB020043E80001D3
:1020300091F0000FF6D1059404900391049B18468B
:1020400007B05DF8044B704710B487B00190009161
:10205000019B009A53E8004FA4EB020043E8000103
:1020600091F0000FF6D1059404900391049B18465B
:1020700007B05DF8044B704700B583B0019001983C
:10208000FFF7E6FA0346184603B05DF804FB00B517
:102090008BB001900091019B1B8A043B0793009A2F
:1020A000079B1344DA1C079BB2FBF3F38DF81B303C
:1020B0000198FFF725FB0590059B002B01D100231C
:1020C00038E0059B00221A71059B01225A71079B7B
:1020D0009AB2059BDA80059B09939DF81B30013B62
:1020E0000493099B019A1A60002308931DE001984C
:1020F000FFF706FB0390039B002B0ED0059B5B793B
:102100000133DAB2059B5A71099B039A1A60039B4B
:10211000019A1A60039B099304E0059800F00EF8F9
:10212000002307E0089B01330893089A049B9A4216
:10213000DDD3059B18460BB05DF804FB00B58BB0F2
:102140000190019B0793079B5B798DF81B30019BE6
:1021500008939DF81B30013B05930023099305E08C
:10216000089B1B680893099B01330993099A059BF7
:102170009A42F5D3089B1B680493019B08930023A4
:1021800009930BE0089B1B68039308990498FFF7D9
:10219000F7FA039B0893099B013309939DF81B30C1
:1021A000099A9A42EED300BF0BB05DF804FB00B56C
:1021B00085B00190019B0393039B043301211846D2
:1021C000FFF72AFF00BF05B05DF804FB00B587B03C
:1021D0000190019B0593059B043301211846FFF7ED
:1021E00033FF0346039303AB0493049B1B78002B3C
:1021F00002D10198FFF7A2FF00BF07B05DF804FB12
:1022000000B58DB00390029101920093039B069359
:10221000069BDB880593039B0B93009B1A1D059B74
:10222000B2FBF3F30A93009B0433059AB3FBF2F27B
:10223000059901FB02F29B1A0993009A019B1A442B
:10224000059B1344DA1C059BB2FBF3F38DF81330A6
:10225000069B5B799DF813209A420AD92749BA2038
:10226000FFF7A9F905E00B9B1B680B930A9B013B49
:102270000A930A9B002BF6D100230893059A099B29
:10228000D31A0793079A019B934228BF13460793DB
:102290002DE09DF83830002B0BD0029A089BD01807
:1022A0000B9A099B13440433079A194607F048F820
:1022B0000AE00B9A099B1344181D029A089B1344C9
:1022C000079A194607F03CF8002309930B9B1B68FB
:1022D0000B93019A079BD31A0193089A079B134407
:1022E0000893059A019B934228BF13460793019BCD
:1022F000002BCED100BF0DB05DF804FBF0990000BB
:1023000000B587B0059004910392029300230093D7
:10231000029B039A04990598FFF772FF00BF07B06C
:102320005DF804FB00B587B0059004910392029319
:1023300001230093029B039A04990598FFF760FF1D
:1023400000BF07B05DF804FB00B585B001900198AF
:1023500000F00EF80390039B002B01D0039B00E0DC
:10236000024B184605B05DF804FB00BF949A0000CC
:1023700086B00190164B0593164B04931FE0049A08
:10238000059BD31ADB10DA0F13445B10DB00059AB0
:1023900013440393039B1B680293029A019B9A4286
:1023A00002D9039B04930AE0029A019B9A4203D24A
:1023B000039B0833059302E0039B5B6804E0059AE6
:1023C000049B9A42DBD30023184606B0704700BF37
:1023D000B09D0000A09E000082B003468DF807303B
:1023E0009DF8073003F01F0205499DF907305B098E
:1023F000012000FA02F241F8232000BF02B070472A
:1024000000E100E082B003468DF807309DF8073008
:1024100003F01F0206499DF907305B09012000FA0D
:1024200002F2603341F8232000BF02B0704700BFC2
:1024300000E100E082B0034600918DF807309DF97D
:102440000730002B0CDA009BDAB20C499DF80730FC
:1024500003F00F03043B5201D2B20B441A7609E099
:10246000009BDAB206499DF907305201D2B20B4403
:1024700083F8002300BF02B0704700BF00ED00E00A
:1024800000E100E000B583B003460A468DF807304E
:1024900013468DF806309DF80630072B04D90D49F8
:1024A0004FF49270FFF787F89DF806209DF90730EA
:1024B00011461846FFF7BEFF9DF907301846FFF793
:1024C000A1FF9DF907301846FFF786FF00BF03B054
:1024D0005DF804FBA09E000000B583B00346ADF894
:1024E0000630BDF80630184600F026F803461B6893
:1024F000012B0CBF01230023DBB2184603B05DF8AB
:1025000004FB00B585B00346ADF80630BDF80630D3
:10251000184600F011F803461A4600231360BDF870
:102520000630184600F008F803461B680393039B27
:1025300000BF05B05DF804FB82B00346ADF806307D
:10254000BDF8063003F1804303F5C043184602B0DE
:102550007047000082B00190034A019BC2F8043327
:1025600000BF02B0704700BF0060004082B0019021
:10257000034BD3F80423019B1340184602B0704765
:102580000060004082B00190084A019B03F5A273ED
:1025900052F82330054943F00102019B03F5A27371
:1025A00041F8232000BF02B0704700BF0060004028
:1025B00084B00390029113468DF80730144A039BB0
:1025C00003F5A27352F82330114923F4473323F45F
:1025D0004073039A02F5A27241F822300C4A039B21
:1025E00003F5A27352F82320029B1B0203F4F85157
:1025F0009DF807301B0403F440330B4304491A438E
:10260000039B03F5A27341F8232000BF04B0704779
:102610000060004082B00190054A019B03F5A2735F
:1026200052F823301B0A03F01F03184602B070470C
:102630000060004082B00190064A019B03F5A2733E
:1026400052F823301B0C03F00303DBB2184602B030
:10265000704700BF0060004000B583B00190019B4F
:102660001B681F2B04D905494FF4E870FEF7A3FF40
:102670004FF0A043184603B05DF804FB3C9F0000F8
:1026800000B585B00190084611461A4603468DF8FC
:1026900003300B468DF8023013468DF8013001AB44
:1026A0001846FFF7D9FF03909DF803209DF80230EC
:1026B0005B001A439DF801309B001A439DF81830C7
:1026C0001B0242EA03019DF81C301B04019A1943C6
:1026D000039B02F5E07243F8221000BF05B05DF8DD
:1026E00004FB00B585B003900B468DF80B309DF8C8
:1026F0000B200023019300230093134600220021A6
:102700000398FFF7BDFF00BF05B05DF804FB00B5FF
:1027100085B0019001AB1846FFF79EFF0390019A28
:10272000039B02F5E07253F8223023F00203029378
:10273000019A039B02F5E072029943F8221000BF50
:1027400005B05DF804FB00B585B001900B468DF82F
:10275000033001AB1846FFF77FFF0390019A039BFC
:1027600002F5E07253F82230019A23F44031039BC2
:1027700002F5E07243F82210019A039B02F5E07221
:1027800053F822309DF8032012041146019A194390
:10279000039B02F5E07243F8221000BF05B05DF81C
:1027A00004FB00B585B0019001AB1846FFF754FF5C
:1027B0000390039800F020F80246019B22FA03F3ED
:1027C00003F00103184605B05DF804FB00B585B0C1
:1027D000019001AB1846FFF73FFF0390019A039B5E
:1027E00002F5E07253F822301B0C03F00303DBB256
:1027F000184605B05DF804FB82B00190019BD3F848
:102800001035184602B0704700B587B003900291AA
:1028100001924FF0A0430493039A029B1344012BAF
:1028200004D912494FF43A70FEF7C5FE039B059395
:1028300011E0059B9B0006AA134453F8083C184678
:10284000FFF7DAFF0246019B1A60019B04330193F4
:10285000059B01330593039A029B1344059A9A4200
:10286000E7D300BF07B05DF804FB00BF3C9F00004A
:1028700084B001900091009B0393019BDB080293BD
:10288000019B03F0070301930122019B02FA03F36A
:102890000399029A0A4412781340184604B070470C
:1028A00084B001900091009B0393019BDB0802938D
:1028B000019B03F007030193039A029B13441B78C7
:1028C0005AB20121019B01FA03F35BB2134359B2DF
:1028D000039A029B1344CAB21A7000BF04B0704737
:1028E00082B001900C4A019B1344243393F90030C9
:1028F000002B09DB084A019B1344243393F9003071
:10290000072B01DC012300E0002303F00103DBB20D
:10291000184602B0704700BF9006002082B00190B8
:10292000064A019B1344243393F90030072BCCBF94
:1029300001230023DBB2184602B070479006002046
:1029400082B00190064A019B1344243393F900306E
:10295000DB43DBB2DB09DBB2184602B0704700BFD5
:102960009006002084B00390029101928DF803300C
:10297000029B59B20E4A039B134424330A461A7031
:102980000B49029B019A41F823209DF8033083F004
:102990000103DBB2002B08D0029B083B039A51B223
:1029A000034A13440A4683F8442000BF04B070472A
:1029B0009006002082B00190044A019B1344243306
:1029C000FF221A7000BF02B0704700BF90060020BF
:1029D00082B00190044A019B1344243393F90030E0
:1029E000184602B0704700BF9006002082B00190E8
:1029F000034A019B52F82330184602B0704700BFCB
:102A00009006002000B589B00390029113468DF81E
:102A10000730FF238DF81F309DF80730002B01D0C1
:102A2000002300E0082305939DF80730002B01D018
:102A3000082300E009230493059B069314E00F4A42
:102A4000069B52F82330B3F1FF3F0AD19DF80730BF
:102A5000029A06990398FFF785FF069B8DF81F30B1
:102A600006E0069B01330693069A049B9A42E6D33E
:102A70009DF91F30184609B05DF804FB9006002050
:102A800082B003468DF807309DF80730094A4FF0B1
:102A9000FF3142F823109DF80730072B07D99DF826
:102AA0000730083B034A1344FF2283F8442000BF49
:102AB00002B070479006002000B583B0214B93F818
:102AC0004530002B03D008230093009B36E0002301
:102AD0008DF8073009E09DF807301846FFF76AFFC8
:102AE0009DF8073001338DF807309DF807301F2B14
:102AF000F1D900238DF8073009E09DF8073018461A
:102B0000FFF7BEFF9DF8073001338DF807309DF8C1
:102B10000730082BF1D907210620FFF7B3FC4FF44B
:102B2000BE70FFF7EEFC4FF00040FFF713FD054BC2
:102B3000012283F8452000230093009B184603B030
:102B40005DF804FB90060020044B93F84530002B01
:102B500014BF01230023DBB2184670479006002003
:102B600000B587B0039002910192039B1F2B04D9FB
:102B70002B4940F2F710FEF71EFD00230593039842
:102B8000FFF7DEFE0346002B02D00823059341E049
:102B9000029BDB781A4601990398FFF733FF03463F
:102BA0008DF813309DF91330B3F1FF3F30D0029B05
:102BB0009B78002B03D00398FFF7A9FD05E0029B4B
:102BC0005B7819460398FFF78CFD029BDB78002B9E
:102BD00008D09DF91300029B1B781A460399FFF752
:102BE000E7FC17E09DF91330083B0E4A134493F9B4
:102BF0004410029B1B789B015AB29DF91330083B8D
:102C00000A4351B2074A13440A4683F8442001E0BC
:102C100004230593059B184607B05DF804FB00BF2D
:102C20009C9F00009006002000B587B001900B46E5
:102C30008DF80330019B1F2B04D93D4940F225201C
:102C4000FEF7B9FC0198FFF77BFE0346002B04D189
:102C5000374940F22620FEF7AEFC0198FFF75EFEF2
:102C60000346002B2FD00198FFF7B2FE0346083B26
:102C7000304A134493F944308DF816309DF81630DD
:102C80009B098DF815309DF81530032B0BD1019859
:102C9000FFF787FD0346002B01D0032300E002234A
:102CA0008DF8173008E09DF81530012B01D1022373
:102CB00000E003238DF817309DF81730194601986E
:102CC000FFF741FD30E00198FFF70AFE0346002BB5
:102CD0002AD00198FFF77CFE03460493049B9BB225
:102CE00040339BB29B00ADF80E30049B1846FFF7B3
:102CF00049FCBDF80E301846FFF703FC9DF8033081
:102D0000002B11D00198FFF763FE03461846FFF72A
:102D10006DFE0290029B002B06D00122049B02FA5A
:102D200003F31846FFF716FC00BF07B05DF804FB7D
:102D30009C9F00009006002000B595B000231093E2
:102D4000002303934FF48073ADF84C3001231293AA
:102D500000230F9321E0BDF84C301846FFF7BCFB71
:102D60000346002B0ED01298FFF700FC0346002B01
:102D700008D0BDF84C301846FFF7C3FB109A129BE1
:102D800013431093129B5B001293BDF84C30043335
:102D9000ADF84C300F9B01330F930F9B072BDAD903
:102DA0004FF4BE70FFF798FB0346002B0DD04FF495
:102DB000BE70FFF7A6FB109B43F00043109303ABDC
:102DC0001A4601210020FFF71FFD109BDBB2002BEC
:102DD00029D00123129300230F9321E0129A109B14
:102DE0001340002B16D00F98FFF714FC0D900F988E
:102DF000FFF720FC03468DF833300F98FFF7F6FD00
:102E00000B900B9B002B05D09DF833200B9B11469C
:102E10000D989847129B5B0012930F9B01330F9301
:102E20000F9B072BDAD9109B002B80F2EE8000233A
:102E30008DF84F3000230293002311930AE0119B79
:102E40009B0014AA13444FF0FF3243F84C2C119B03
:102E500001331193119B002BF1D000238DF84F30DB
:102E600000230F9378E06B4A0F9B1344443393F98C
:102E700000308DF82B309DF82B3023F0C0030993E0
:102E8000644A0F9B1344443393F90030B3F1FF3F7E
:102E90005FD001AB19460998FFF7EAFC0346002B07
:102EA00057D09DF82B309B098DF823300998FFF7F8
:102EB0008FFD03461846FFF799FD0790079B002BEF
:102EC00003D19DF82330032B43D19DF82330032BEE
:102ED00004D102AB19460998FFF7E2FC0998FFF705
:102EE00075FC03468DF81B3003AB19460998FFF7B4
:102EF000BFFC0590059B002B03D09DF81B30022BD7
:102F000006D0059B002B24D19DF81B30032B20D12C
:102F10009DF82330032B13D19DF81B30022B01D1D8
:102F2000032300E002238DF813309DF81330194677
:102F30000998FFF708FC9DF84F3001338DF84F30AA
:102F4000079B002B05D09DF82320079B114609986D
:102F500098470F9B01330F930F9B002B83D09DF855
:102F60004F30002B4CD001238DF83B306B461A4676
:102F700001210020FFF748FC0023119314E0119B6E
:102F80009B0014AA134453F8502C119B9B0014A9C6
:102F90000B4453F8443C9A4203D000238DF83B3055
:102FA00005E0119B01331193119B002BE7D09DF895
:102FB0003B30002B03D000238DF84F3020E000235E
:102FC00011931AE0119B9B0014AA134453F8502C40
:102FD000119B9B0014A90B4443F8442C119B9B00AC
:102FE00014AA134453F8482C119B9B0014A90B44BA
:102FF00043F84C2C119B01331193119B002BE1D012
:103000009DF84F30002B7FF428AF00BF15B05DF85E
:1030100004FB00BF9006002084B001900B46ADF881
:103020000230BDF80230019A134400221A60BDF844
:103030000230019A13441B680393039B00BF04B042
:10304000704782B001900B46ADF80230BDF80230F7
:10305000019A13441B68002B14BF01230023DBB229
:10306000184602B0704782B001900091019B009A0F
:10307000C3F8042300BF02B0704782B001900091F2
:10308000019B009AC3F8082300BF02B0704782B0CA
:103090000190019B0122C3F8002500BF02B07047D8
:1030A00084B00390029101920093039B029AC3F8AB
:1030B0000825039B019AC3F80C25039B009AC3F8CB
:1030C000102500BF04B0704782B001900B468DF808
:1030D00003309DF80320019BC3F81C2500BF02B0FC
:1030E000704782B00190019BD3F81835DBB21846C7
:1030F00002B0704782B001900091009A019BC3F822
:10310000242500BF02B0704784B001900B468DF8B3
:10311000033013468DF802309DF80230002B14BFA7
:1031200001230023DBB203939DF80330022B08D068
:10313000032B0BD0012B0ED1039B43F0020303930F
:103140000AE0039B43F00403039305E0039B43F071
:103150000603039300E000BF019B039AC3F85425C4
:1031600000BF04B07047000000B583B00190019B20
:103170001B681F2B04D905494FF4E870FEF71BFAB2
:103180004FF0A043184603B05DF804FB38A00000E0
:1031900000B585B00190084611461A4603468DF8E1
:1031A00003300B468DF8023013468DF8013001AB29
:1031B0001846FFF7D9FF03909DF803209DF80230D1
:1031C0005B001A439DF801309B001A439DF81830AC
:1031D0001B0242EA03019DF81C301B04019A1943AB
:1031E000039B02F5E07243F8221000BF05B05DF8C2
:1031F00004FB00B585B003900023019300230093E6
:103200000023012201210398FFF7C2FF00BF05B090
:103210005DF804FB00B585B003900B468DF80B30CC
:103220009DF80B20002301930023009313460022F6
:1032300000210398FFF7ACFF00BF05B05DF804FB69
:1032400000B585B0019001AB1846FFF78DFF0390E4
:10325000019B012202FA03F31946039800F018F8C3
:1032600000BF05B05DF804FB00B585B0019001AB6F
:103270001846FFF779FF0390019B012202FA03F33E
:103280001946039800F00EF800BF05B05DF804FB86
:1032900082B001900091019B009AC3F8082500BFFD
:1032A00002B0704782B001900091019B009AC3F870
:1032B0000C2500BF02B0704700B58DB00590049199
:1032C00003920293049B002B03D15F49A820FEF7D1
:1032D00072F9059B5B791A461346DB0013449B0089
:1032E0005A4A13440B930B9B1B7F002B03D00823DC
:1032F0000A930A9BA4E00B9B039A1A600B9B029A09
:103300005A60049B1B7B012B05D8049B1B78184635
:10331000FFF7AAFF04E0049B1B781846FFF790FF15
:10332000049B1B781846002301930023009300237D
:1033300000220121FFF72CFF049B5B78FF2B09D0B3
:10334000049B5B7809930998FFF78EFF0998FFF7B4
:1033500050FF02E04FF0FF330993049B9B78FF2B53
:1033600007D0049B9B78089301210898FFF752FF30
:1033700002E04FF0FF330893049BDB78FF2B09D06A
:10338000049BDB781846FFF75BFF049BDB7818464D
:10339000FFF72FFF059B5B791946049BD8782B4AD2
:1033A0000B46DB000B449B0013441E3302461A708D
:1033B000059B1B680793049B1B781946089B099A79
:1033C0000798FFF76DFE049B9B6819460798FFF767
:1033D00091FE049B197B049B5B7B1A460798FFF7C1
:1033E00093FE059B5B791946049B5879174A0B4657
:1033F000DB000B449B0013441F3302461A700B9BE7
:103400001B68002B03D004210798FFF72CFE0798B8
:10341000FFF73DFE0B9B1B68002B08D0059B93F923
:103420000420049B1B7919461046FFF72BF80B9BD1
:1034300000225A770B9B01221A7700230A930A9BDA
:1034400018460DB05DF804FB94A00000D8060020DB
:1034500000B589B003900291009313468DF80730B0
:10346000029B0493009B06939DF807308DF814305F
:103470009DF828308DF81C3004AB002219460398C3
:1034800000F00EF90346184609B05DF804FB00B5DC
:1034900083B00190019B9B7FFF2B04D0019B9B7FFE
:1034A0001846FFF7CDFE019B00225A77019B0022B0
:1034B0001A72019B1B68019A02F10800019A526876
:1034C0001146984700BF03B05DF804FB00B585B016
:1034D000019000910198FFF704FE03468DF80D302E
:1034E000009B93F82020009B1B7E9A4209D2009BF0
:1034F0005B69009A92F8202013449DF80D20D2B207
:103500001A70009B93F820300133DAB2009B83F8E5
:103510002020009B93F820309BB20133ADF80E3091
:10352000009B93F8213003F00403DBB2002B17D08B
:10353000009B1B7C9BB2BDF80E209A4204D2BDF8C2
:103540000E30DAB2009B1A74009B1B7E9BB2BDF852
:103550000E209A4204D2BDF80E30DAB2009B1A76E1
:10356000009B1B7C9BB2BDF80E209A420BD2009BA5
:10357000DA68BDF80E3013441B7819460198FFF73E
:10358000A3FD012322E0009B1B7E9BB2BDF80E2011
:103590009A4207D2009BDB7F19460198FFF794FD02
:1035A000012313E0009B93F82020009B1B7C9A4290
:1035B00006D3009B93F82020009B1B7E9A4201D2E9
:1035C000012300E0002303F00103DBB2184605B03D
:1035D0005DF804FB00B585B0039002910192029B57
:1035E000002283F8202004210398FFF746FD4FF4C2
:1035F00084710398FFF710FD019B1B79002B03D00A
:10360000019B1B681B7801E0029BDB7F1946039836
:10361000FFF75AFD019B1B79012B08D9019B1B6801
:1036200001331B7819460398FFF74EFD09E0019B13
:103630001B7B012B05D9029BDB7F19460398FFF703
:1036400043FD029B1B68002B04D004210398FFF765
:103650000AFD20E000BF4FF484710398FFF7F1FCEE
:10366000034683F00103DBB2002BF4D14FF48471E5
:103670000398FFF7D1FC02990398FFF727FF034651
:10368000002BE7D1029B9B7FFF2B04D0029B9B7FEB
:103690001846FFF7D5FD00BF05B05DF804FB00003C
:1036A00010B586B0039002910192039B5B791A4694
:1036B0001346DB0013449B003B4A13440593059BD0
:1036C0001B7F002B04D1394940F25720FDF773FFCF
:1036D000029B1B68002B08D1029B1B79002B04D096
:1036E00032494FF41670FDF766FF029B9B68002B72
:1036F00008D1029B1B7B002B04D02C4940F259209F
:10370000FDF759FF00230493059B5B7FDBB2002B81
:1037100003D011230493049B42E0059B1B68002BFC
:1037200007D0019B03F01403002B02D1059B01225B
:103730005A77059B029A03F10C0413460FCB84E8D9
:103740000F00059A92F821306FF3000382F82130C0
:10375000059A92F821306FF3410382F82130059ADF
:1037600092F821306FF3820382F82130059B9B7F12
:10377000FF2B04D0059B9B7F1846FFF775FD019B2F
:10378000002B05D0059B00225A770623049306E000
:10379000039B1B68029A05991846FFF71BFF049BC1
:1037A000184606B010BD00BFD806002094A0000047
:1037B00000B583B001900091009B1B68002B04D1E1
:1037C0000D494FF43570FDF7F6FE4FF48471019802
:1037D000FFF722FC00990198FFF778FE034683F07B
:1037E0000103DBB2002B02D00098FFF750FE00BFB0
:1037F00003B05DF804FB00BF94A0000000B583B0E7
:10380000044B019301990448FFF7D2FF00BF03B0B6
:103810005DF804FBD80600200030004084B0019021
:103820000B46ADF80230BDF80230019A1344002275
:103830001A60BDF80230019A13441B680393039B7E
:1038400000BF04B0704782B001900B46ADF8023063
:10385000BDF80230019A13441B68002B14BF0123EA
:103860000023DBB2184602B0704782B0019000918D
:10387000019BD3F80423009B1340002B14BF0123AA
:103880000023DBB2184602B0704782B0019000916D
:10389000019B009AC3F8082300BF02B0704784B0B0
:1038A0000190019BD3F880340393019B039AC3F8E2
:1038B0008024039B184604B0704782B00190019B9E
:1038C000D3F81835DBB2184602B0704782B00190C9
:1038D0000B468DF803309DF80320019BC3F81C258F
:1038E00000BF02B0704782B001900B468DF80330E4
:1038F0009DF80330019A134401221A6000BF02B000
:10390000704784B001900B46ADF80230BDF802302C
:10391000019A134400221A60BDF80230019A134440
:103920001B680393039B00BF04B0704782B00190F3
:103930000B46ADF80230BDF80230019A13441B6803
:10394000002B14BF01230023DBB2184602B07047DE
:1039500082B001900091019BD3F80022009BDB43D1
:103960001A40019BC3F8002200BF02B0704784B028
:103970000190019BD3F880340393019B039AC3F811
:103980008024039B184604B0704782B00190019BCD
:10399000D3F84C35184602B0704782B00190019BB5
:1039A000D3F83C35184602B0704700B585B0019099
:1039B00000914FF48E710198FFF730FF009B9B68D8
:1039C000009A928A92B213441B788DF80F30009BB4
:1039D0009B8A9BB201339AB2009B9A829DF80F306A
:1039E00019460198FFF772FF00BF05B05DF804FBB0
:1039F00010B582B001900091009BDB7D002B08D1B7
:103A00004FF484710198FFF709FF0198FFF755FF04
:103A100016E04FF484710198FFF700FF009BDB680C
:103A2000009A527ED2B29C180198FFF746FF0346D7
:103A30002370009B5B7EDBB20133DAB2009B5A76C7
:103A400002B010BD00B589B003900B4601928DF80D
:103A50000B3001238DF810309DF80B308DF81830A5
:103A6000019B0593039B5B68039A116804AA1046A7
:103A7000984700BF09B05DF804FB00B587B001901E
:103A80000B468DF8033000238DF808309DF8033085
:103A90008DF81030019B9B680393019B00229A755F
:103AA000019B5B68019A116802AA1046984700BF03
:103AB00007B05DF804FB00B589B0019000914FF4A8
:103AC00000710198FFF7D1FE0346002B39D04FF467
:103AD00092710198FFF7B7FE0346002B31D04FF4E7
:103AE00092710198FFF79AFE4FF401710198FFF768
:103AF000CCFE009B9B7E83F00103DBB2002B03D046
:103B000004210198FFF7EFFE02238DF80830019899
:103B1000FFF7C5FE03460593009BDB7D8DF8103053
:103B2000009BDB680393009B0022DA75009B002258
:103B30001A76009B5B68009A116802AA10469847A3
:103B400056E004210198FFF790FE0346002B4FD06A
:103B50004FF484710198FFF776FE0346002B47D09F
:103B600000990198FFF744FF009BDA7D009B5B7E84
:103B7000DBB29A423CD1009B1B7E002B1CD0009BE9
:103B8000DB680793009B5B7E8DF81B30009B1A7EE1
:103B9000009BDA75009B1A69009BDA60009B00228B
:103BA0001A76009B00225A769DF81B30079A194618
:103BB0000098FFF747FF1BE0009B9B7E83F001030B
:103BC000DBB2002B03D004210198FFF78CFE4FF4E9
:103BD00001710198FFF759FE009B0022DA75009BE6
:103BE0005B7ED9B2009BDB681A460098FFF72AFF7C
:103BF0004FF48E710198FFF726FE0346002B1BD071
:103C0000009B9B8A9AB2009B9B7D9BB29A4204D2F6
:103C100000990198FFF7C9FE0EE04FF48E710198EC
:103C2000FFF7FCFD009B9B7D002B05D0009B9B7D3F
:103C300019460098FFF721FF4FF4A2710198FFF792
:103C400002FE0346002B1CD04FF4A2710198FFF72F
:103C5000E5FD009B9B7E002B03D000210198FFF720
:103C600042FE009BDB7D002B0BD0009B0022DA750F
:103C7000009B5B7ED9B2009BDB681A460098FFF779
:103C8000E1FE00BF09B05DF804FB00B589B001900A
:103C900000914FF492710198FFF748FE0346002B04
:103CA00024D04FF492710198FFF72BFE02238DF878
:103CB00008300198FFF75BFE034605930198FFF774
:103CC0006CFE0346DBB28DF81030009BDB6803937B
:103CD000009B0022DA75009B00221A76009B5B682D
:103CE000009A116802AA1046984741E04FF4887183
:103CF0000198FFF71BFE0346002B39D04FF4887163
:103D00000198FFF7FEFD0198FFF747FE03468DF887
:103D10001F30009BDB7D9DF81F209A4228D1009B1D
:103D20001B7E002B19D0009BDB6806932021019895
:103D3000FFF70EFE009B1A7E009BDA75009B1A6946
:103D4000009BDA60009B00221A769DF81F30069ACD
:103D500019460098FFF776FE0AE0009B0022DA750C
:103D6000009BDA689DF81F3019460098FFF76AFE3D
:103D70004FF4A2710198FFF7D9FD0346002B16D02E
:103D80004FF4A2710198FFF7BCFD009BDB7D002B77
:103D90000DD0009B0022DA750198FFF7FEFD034667
:103DA000D9B2009BDB681A460098FFF74BFE4FF430
:103DB00090710198FFF7BAFD0346002B11D04FF424
:103DC00090710198FFF79DFD009B9B7D002B08D013
:103DD0000198FFF7DAFD0346DBB219460098FFF7BA
:103DE0004CFE00BF09B05DF804FB000008B5074BAE
:103DF0001B7F002B04D005490548FFF746FF03E071
:103E000002490348FFF757FE00BF08BDFC0600202B
:103E10000020004082B001904FF08042019BC2F828
:103E2000043300BF02B0704782B001904FF080426F
:103E3000019BC2F8083300BF02B0704782B003464E
:103E40008DF807309DF8073003F1804301221A6096
:103E500000BF02B0704784B00346ADF80630BDF82D
:103E6000063003F1804300221A60BDF8063003F1EA
:103E700080431B680393039B00BF04B0704782B06C
:103E80000346ADF80630BDF8063003F180431B68E9
:103E9000002B14BF01230023DBB2184602B0704789
:103EA00082B003468DF807309DF807304FF080420E
:103EB00003F00303C2F8183500BF02B070470000DA
:103EC00082B003468DF807300A4A9DF907305B0936
:103ED00052F823209DF8073003F01F03012101FA57
:103EE00003F31340002B14BF01230023DBB2184659
:103EF00002B0704700E100E008B50020FFF7E0FFE6
:103F0000034683F00103DBB2002B03D0072100201E
:103F1000FEF7B8FA00BF08BD08B54FF48270FFF78E
:103F20009AFF0220FFF776FF0820FFF787FF00BF08
:103F300008BD08B54FF48070FFF78DFF0120FFF733
:103F400069FF0020FFF77AFF00BF08BD00B583B00E
:103F5000002301930F4B1B78002B02D08523019384
:103F600013E00C4B00229A600A4B00225A60094B66
:103F700000221A61074B0022DA60FFF7BDFF012023
:103F8000FFF78EFF034B01221A70019B184603B006
:103F90005DF804FB1C07002084B001900091019B98
:103FA0001B68039306E0039A009B9A420DD0039B83
:103FB0001B680393039B002BF5D1019B1A68009BA0
:103FC0001A60019B009A1A6000E000BF04B07047BD
:103FD00084B00190019B1B680393039B002B03D0CB
:103FE000039B1A68019B1A60039B184604B0704734
:103FF00000B583B00190224B1B78002B03D12149DF
:10400000FB20FDF7D8FA1E4B9B78DBB2002B12D0B9
:10401000019B002B03D0019B5B6801209847002087
:10402000FDF782FA164BDB680133154AD360002096
:10403000FDF78EFA17E00020FDF776FA019B002BC2
:1040400003D001991048FFF7A7FF0D4BDB68002B49
:1040500001D1FFF761FF0A4BDB680133084AD360E7
:104060000020FDF775FA064BDB68002B04D10549EB
:1040700040F21710FDF79FFA00BF03B05DF804FB94
:104080001C07002030A200002C07002000B583B0E0
:104090000190234B1B78002B04D122494FF49C70D4
:1040A000FDF789FA1E4B5B78DBB2002B12D0019B27
:1040B000002B03D0019B5B68002098470020FDF790
:1040C00033FA174B5B680133154A53600020FDF744
:1040D0003FFA17E00020FDF727FA019B002B03D0E1
:1040E00001991148FFF758FF0D4B5B68002B01D178
:1040F000FFF71FFF0A4B5B680133094A536000203A
:10410000FDF726FA064B5B68002B04D105494FF4F6
:10411000AA70FDF750FA00BF03B05DF804FB00BFC2
:104120001C07002030A200002407002000B585B045
:1041300003468DF807309DF80730002B02D10C4B59
:10414000039301E00B4B03930398FFF741FF0290A9
:10415000029B002B06D0029B5B689DF8072010464F
:104160009847F1E700BF00BF05B05DF804FB00BF52
:10417000240700202C07002008B54FF48070FFF7BB
:104180007EFE0346002B0CD04FF48070FFF763FED9
:104190000120FFF749FE0E4B01225A700020FFF765
:1041A000C5FF4FF48270FFF76AFE0346002B0CD068
:1041B0004FF48270FFF74FFE0220FFF735FE044BED
:1041C00001229A700120FFF7B1FF00BF08BD00BFB8
:1041D0001C07002000B583B01F4B0193019B0322F5
:1041E0001A61019B03225A61019B1C4A9A61019B3F
:1041F0001B4ADA61019B4FF400621A62019B0022A4
:104200009A62019B00225A62019B0022DA62019BA2
:10421000124A1A66019B134A5A66019B10229A663B
:10422000019B00221A67019B0022DA66019B002293
:104230005A67019B07330C49184605F0DDF8019BCE
:104240000A49184605F0D8F8019B20229A7100BF50
:1042500003B05DF804FB00BF30070020CCA20000D3
:10426000D8070020D80F0020D8A20000DCA2000050
:1042700000B589B003900291019200230693039B3D
:10428000DB680593039B1B690493049A059B9A4280
:1042900005D9049A059BD31A013B079307E0039BBA
:1042A0009A680499059BCB1A1344013B0793039B1F
:1042B0009A68059BD31A079A934228BF134607931F
:1042C000079A019B934228BF13460793039B5A68A2
:1042D000059B1344079A0299184605F031F8069A8F
:1042E000079B13440693029A079B13440293019A77
:1042F000079BD31A0193059A079B13440593039BCD
:104300009B68059A9A4201D100230593039B059A65
:10431000DA60019B002BB5D1069B184609B05DF809
:1043200004FB00B589B0039002910192039BDB6806
:104330000793039B9A68079BD31A0693069A019BDF
:104340009A420ED9039B5A68079B1344019A02991B
:10435000184604F0F5FF079A019B1A44039BDA60A4
:104360001AE0069B0593039B5A68079B1344059A22
:104370000299184604F0E4FF019A069BD31A0593AC
:10438000039B5868029A069B1344059A194604F049
:10439000D7FF039B059ADA6000BF09B05DF804FB04
:1043A00086B00190019B1B690493019BDB6803931A
:1043B000049A039B9A4208D8019B9A68039BD21ADD
:1043C000049B1344013B059304E0049A039BD31A16
:1043D000013B0593059B184606B0704700B589B0B0
:1043E000039002910192029B0693039B5A1C134671
:1043F0005B001344DB001F4A13440593059B5B6974
:10440000012B17D0002B02D0022B23D029E00598D6
:10441000FFF7C6FF0490049A019B9A4202D2002340
:10442000079321E0019B0793019A06990598FFF7EE
:1044300078FF19E00598FFF7B3FF0490019A049BF9
:10444000934228BF13460793079A06990598FFF7EA
:1044500068FF09E0019A06990598FFF709FF0790A0
:1044600002E00023079300BF079B184609B05DF8E0
:1044700004FB00BF3007002008B5FFF7ABFE00BF0C
:1044800008BD0000BFF34F8F054BDB6803F4E0620B
:104490000349044B1343CB60BFF34F8F00BFFDE7CD
:1044A00000ED00E00400FA05024B034A1A6000BF69
:1044B000704700BF8C0000200090D00308B500F0CA
:1044C0005BF90346002B06D09A4B1B681B0A9A4ADD
:1044D00003F01F03136000F07BF90346002B02D0AA
:1044E000964B974A1A6000F08FF90346002B06D0CE
:1044F000944B1B685B0B944A03F00703136000F0B6
:10450000AFF90346002B05D0904BDB688F4A23F0B0
:104510008073D36000F0C0F90346002B0ED04FF03B
:1045200080430022C3F80C214FF080430022C3F8DF
:1045300010214FF080430022C3F8382500F0D8F94D
:104540000346002B02D0824B03221A6000F0ECF9E4
:104550000346002B0BD07F4B05221A607E4B0122B5
:104560001A607E4B00221A607D4B3F221A6000F0D9
:10457000F7F90346002B76D04FF08053794AD3F8F1
:104580000434C2F820354FF08053764AD3F808340B
:10459000C2F824354FF08053724AD3F80C34C2F875
:1045A00028354FF080536F4AD3F81034C2F82C35B9
:1045B0004FF080536B4AD3F81434C2F830354FF0C3
:1045C0008053684AD3F81834C2F834354FF080531A
:1045D000644AD3F81C34C2F840354FF08053614A26
:1045E000D3F82034C2F844354FF080535D4AD3F8F5
:1045F0002434C2F848354FF080535A4AD3F828344F
:10460000C2F84C354FF08053564AD3F82C34C2F8D8
:1046100050354FF08053534AD3F83034C2F85435F4
:104620004FF080534F4AD3F83434C2F860354FF01E
:1046300080534C4AD3F83834C2F864354FF0805375
:10464000484AD3F83C34C2F868354FF08053454AA5
:10465000D3F84034C2F86C354FF08053414AD3F858
:104660004434C2F8703500F097F90346002B05D0AA
:104670003D4B1B683D4A03F04F03136000F0B8F94F
:104680000346002B0DD04FF08043D3F8003403F0E5
:104690000103002B05D04FF080436FF00102C3F8F7
:1046A0000024334BD3F88830314A43F47003C2F806
:1046B0008830BFF34F8FBFF36F8F4FF01023D3F8C5
:1046C0000032002B05DB4FF01023D3F80432002B0F
:1046D0002BDA284B0122C3F8042500BF254BD3F861
:1046E0000034002BFAD04FF010231522C3F800221B
:1046F00000BF204BD3F80034002BFAD04FF010232A
:104700001522C3F8042200BF1A4BD3F80034002B43
:10471000FAD0184B0022C3F8042500BF154BD3F87C
:104720000034002BFAD0FFF7ADFEFFF7BDFE00BF4F
:1047300008BD00BF240300104035014074C007408D
:104740000DF0ADBA440200103C050040F0ED00E071
:10475000A005004010560040885600401856004002
:104760001456004000C0004058020010E40E004003
:1047700000ED00E000E00140124B1B68DBB2062BAD
:104780001DD1114B1B6803F00F03002B17D10F4BEA
:104790001B6803F0F003302B01D1012310E00B4B19
:1047A0001B6803F0F003402B01D1012308E0074B05
:1047B0001B6803F0F003502B01D1012300E000231C
:1047C00018467047E00F00F0E40F00F0E80F00F02B
:1047D0000A4B1B68DBB2062B0DD1094B1B6803F09B
:1047E0000F03002B07D1074B1B6803F0F003302B9E
:1047F00001D1012300E0002318467047E00F00F0CC
:10480000E40F00F0E80F00F0124B1B68DBB2062B40
:104810001DD1114B1B6803F00F03002B17D10F4B59
:104820001B6803F0F003302B01D1012310E00B4B88
:104830001B6803F0F003402B01D1012308E0074B74
:104840001B6803F0F003502B01D1012300E000238B
:1048500018467047E00F00F0E40F00F0E80F00F09A
:104860000A4B1B68DBB2062B0DD1094B1B6803F00A
:104870000F03002B07D1074B1B6803F0F003302B0D
:1048800001D1012300E0002318467047E00F00F03B
:10489000E40F00F0E80F00F0124B1B68DBB2062BB0
:1048A0001DD1114B1B6803F00F03002B17D10F4BC9
:1048B0001B6803F0F003302B01D1012310E00B4BF8
:1048C0001B6803F0F003402B01D1012308E0074BE4
:1048D0001B6803F0F003502B01D1012300E00023FB
:1048E00018467047E00F00F0E40F00F0E80F00F00A
:1048F0000A4B1B68DBB2062B0DD1094B1B6803F07A
:104900000F03002B07D1074B1B6803F0F003302B7C
:1049100001D1012300E0002318467047E00F00F0AA
:10492000E40F00F0E80F00F00A4B1B68DBB2062B27
:104930000DD1094B1B6803F00F03002B07D1074B68
:104940001B6803F0F003302B01D1012300E00023AA
:1049500018467047E00F00F0E40F00F0E80F00F099
:104960000A4B1B68DBB2062B0DD1094B1B6803F009
:104970000F03002B07D1074B1B6803F0F003502BEC
:1049800001D1012300E0002318467047E00F00F03A
:10499000E40F00F0E80F00F0124B1B68DBB2062BAF
:1049A0001DD1114B1B6803F00F03002B17D10F4BC8
:1049B0001B6803F0F003302B01D1012310E00B4BF7
:1049C0001B6803F0F003402B01D1012308E0074BE3
:1049D0001B6803F0F003502B01D1012300E00023FA
:1049E00018467047E00F00F0E40F00F0E80F00F009
:1049F000124B1B68DBB2062B1DD1114B1B6803F059
:104A00000F03002B17D10F4B1B6803F0F003302B63
:104A100001D1012310E00B4B1B6803F0F003402B86
:104A200001D1012308E0074B1B6803F0F003502B72
:104A300001D1012300E0002318467047E00F00F089
:104A4000E40F00F0E80F00F000B583B001F0A8F823
:104A50004FF0FF330093172319221A21044800F066
:104A6000EDF900F05FFA0023184603B05DF804FB8F
:104A7000D411002000BF704700BF704700B583B05D
:104A80000190019B1B681F2B04D905494FF4E87066
:104A9000FCF791FD4FF0A043184603B05DF804FB0E
:104AA000E4A2000000B585B00190084611461A4600
:104AB00003468DF803300B468DF8023013468DF80F
:104AC000013001AB1846FFF7D9FF03909DF8032092
:104AD0009DF802305B001A439DF801309B001A4399
:104AE0009DF818301B0242EA03019DF81C301B049C
:104AF000019A1943039B02F5E07243F8221000BFAC
:104B000005B05DF804FB00B585B003900023019368
:104B1000002300930023012201210398FFF7C2FF25
:104B200000BF05B05DF804FB00B585B003900B46EF
:104B30008DF80B309DF80B20002301930023009388
:104B40001346002200210398FFF7ACFF00BF05B019
:104B50005DF804FB00B585B0019001AB1846FFF786
:104B60008DFF0390019B012202FA03F3194603987B
:104B700000F047F800BF05B05DF804FB00B585B054
:104B8000019001AB1846FFF779FF0390019B0122CA
:104B900002FA03F31946039800F03DF800BF05B090
:104BA0005DF804FB00B583B001900091009B002BE1
:104BB00003D10198FFF7E2FF02E00198FFF7CAFF77
:104BC00000BF03B05DF804FB00B585B0019001ABF8
:104BD0001846FFF753FF0390039800F00AF80246C7
:104BE000019B22FA03F303F00103184605B05DF8B8
:104BF00004FB82B00190019BD3F81035184602B037
:104C0000704782B001900091019B009AC3F808257B
:104C100000BF02B0704782B001900091019B009AE2
:104C2000C3F80C2500BF02B07047000000B583B088
:104C300001900B468DF80330074A019B52F8233050
:104C4000002B04D0044A019B52F82330984700BF40
:104C500003B05DF804FB00BFE80F002000B587B08B
:104C60000390029111461A460B468DF80730134601
:104C70008DF80630029B1F2B38D8039B029A1A60CE
:104C8000039B9DF820201A719DF80730002B1FD13F
:104C90009DF82030002B03D100238DF817300EE053
:104CA0009DF82030012B03D103238DF8173006E047
:104CB0009DF82030022B02D101238DF81730039B81
:104CC0001B689DF8172011461846FFF72DFF04E0DA
:104CD000039B1B681846FFF716FF9DF80730012B52
:104CE00005D109990298FFF75DFF00E000BF07B00A
:104CF0005DF804FB00B58BB0039001930B468DF873
:104D00000B3013468DF80A30039B1B681F2B62D8AB
:104D1000019B002B61D0039B1B683249019A41F82B
:104D2000232000238DF8163000238DF81730FDF76F
:104D30000BFF034683F00103DBB2002B0CD0FDF721
:104D4000BBFE0990099B0893089B002B04D0264AC0
:104D500071210898FCF702FB039B1B6807939DF8E1
:104D60000B30012B03D101238DF814300AE09DF89C
:104D70000B30022B03D102238DF8143002E0032301
:104D80008DF81430039B1B79002B03D100238DF881
:104D900015300AE0039B1B79012B03D103238DF807
:104DA000153002E001238DF8153005AB0F4A194686
:104DB0000798FDF7D5FE0990099B0693069B002BEB
:104DC00004D0094A92210698FCF7C8FA01210798F5
:104DD000FDF72AFF02E000BF00E000BF0BB05DF866
:104DE00004FB00BFE80F00203CA300002D4C000096
:104DF00000B583B001900091019B1B681F2B06D862
:104E0000019B1B6800991846FFF7CCFE00E000BF2D
:104E100003B05DF804FB00B583B00190019B1B68F3
:104E20001F2B01D9002305E0019B1B681846FFF7E3
:104E3000CBFE0346184603B05DF804FB10B58AB0FC
:104E40000390029101920093184B04AC0FCB84E8BD
:104E50000F00039B164A92E8030083E803004FF01B
:104E600000430693019BDBB28DF81230029BDBB24C
:104E70008DF81130009BDBB28DF810300C9BDBB24B
:104E80008DF81330039804A900230022FEF714FACA
:104E90000990099B0893089B002B04D0054A3721F1
:104EA0000898FCF75BFA00BF0AB010BD14A400001C
:104EB00024A40000A8A3000000B589B003900B460D
:104EC000ADF80A30039B002B02D0039B002B09D1C5
:104ED00000230793079B002B04D1114A4621002091
:104EE000FCF73CFA03980DF113020DF10A010123BE
:104EF000009313460122FEF7ABFA0690069B05933A
:104F0000059B002B04D0064A4A210598FCF726FA97
:104F10009DF813309BB2184609B05DF804FB00BF42
:104F2000A8A3000000B583B00123019300230093E0
:104F30000023012218210D48FFF790FE0023019362
:104F400000230093002300221B210948FFF786FE5F
:104F50000023019300230093002300220B21054826
:104F6000FFF77CFE00BF03B05DF804FB00120020D9
:104F7000A4110020B011002000B583B00190019B66
:104F8000032201210348FFF7B5FE00BF03B05DF81F
:104F900004FB00BFB011002000B583B00A2000F070
:104FA0005AFC0023019300230093002301221321C4
:104FB0000B48FFF753FE142000F04DFC0023019333
:104FC000002300930023002213210548FFF746FE2B
:104FD0000A2000F040FC00BF03B05DF804FB00BFF6
:104FE0009811002008B500BF0348FFF714FF0346DF
:104FF000012BF9D000BF08BDA411002008B5FFF7B0
:1050000039FD00210A48FFF7F3FEC0210948FFF7E8
:1050100053FF00210748FFF74FFF01210448FFF726
:10502000E7FEFFF7DFFFFFF727FD00BF08BD00BF6A
:1050300000120020D411002000B585B00346009175
:105040008DF807301346ADF8043001F091FF0021D0
:105050001848FFF7CDFE9DF807309BB21946164859
:10506000FFF72AFF0023ADF80E300EE0BDF80E303A
:10507000009A13441B789BB219460F48FFF71CFF98
:10508000BDF80E300133ADF80E30BDF80E20BDF87E
:1050900004309A42EAD301210648FFF7A9FE9DF8A1
:1050A0000730842B01D0FFF79DFF00BF05B05DF8EE
:1050B00004FB00BF00120020D411002000B585B011
:1050C000034600918DF807301346ADF8043001F027
:1050D0004FFF00211948FFF78BFE9DF807309BB268
:1050E00019461748FFF7E8FE00211548FFF7E4FED0
:1050F0000023ADF80E3010E000211148FFF7DCFE70
:1051000003461946BDF80E30009A1344CAB21A700D
:10511000BDF80E300133ADF80E30BDF80E20BDF8ED
:1051200004309A42E8D301210448FFF761FEFFF7FB
:1051300059FF00BF05B05DF804FB00BF001200205E
:10514000D411002000B585B003460091ADF80630BB
:105150001346ADF8043001F00BFF00211C48FFF7A7
:1051600047FE0D211B48FFF7A7FEBDF806301B0ABE
:105170009BB219461748FFF79FFEBDF80630DBB219
:105180009BB219461348FFF797FE0023ADF80E3087
:105190000EE0BDF80E30009A13441B789BB21946FE
:1051A0000C48FFF789FEBDF80E300133ADF80E3024
:1051B000BDF80E20BDF804309A42EAD3012104481C
:1051C000FFF716FEFFF70EFF00BF05B05DF804FB0A
:1051D00000120020D411002000B583B003460A4617
:1051E000ADF8063013468DF805300DF10501BDF818
:1051F000063001221846FFF7A5FF00BF03B05DF897
:1052000004FB000000B585B003460091ADF8063000
:105210001346ADF8043001F0ABFE00211F48FFF744
:10522000E7FD1D211E48FFF747FEBDF806301B0AAB
:105230009BB219461A48FFF73FFEBDF80630DBB2B5
:105240009BB219461648FFF737FE00211448FFF7B6
:1052500033FE0023ADF80E3010E000211048FFF7B8
:105260002BFE03461946BDF80E30009A1344CAB20D
:105270001A70BDF80E300133ADF80E30BDF80E20B7
:10528000BDF804309A42E8D301210448FFF7B0FD8D
:10529000FFF7A8FE00BF05B05DF804FB0012002078
:1052A000D411002000B585B00346ADF806300DF1ED
:1052B0000F01BDF8063001221846FFF7A3FF9DF845
:1052C0000F30184605B05DF804FB000000B585B04E
:1052D000034600918DF8073013468DF8063001F033
:1052E00047FE00211848FFF783FD0E211748FFF7FE
:1052F000E3FD9DF807309BB219461448FFF7DCFD2B
:105300000023ADF80E300EE0BDF80E30009A1344C5
:105310001B789BB219460D48FFF7CEFDBDF80E3045
:105320000133ADF80E309DF806309BB2BDF80E206B
:105330009A42E9D301210448FFF75AFDFFF752FED4
:1053400000BF05B05DF804FB00120020D41100205E
:1053500000B585B0034600918DF8073013468DF8EF
:10536000063001F005FE00211B48FFF741FD1E211C
:105370001A48FFF7A1FD9DF807309BB21946174860
:10538000FFF79AFD00211548FFF796FD0023ADF8C1
:105390000E3010E000211148FFF78EFD034619463C
:1053A000BDF80E30009A1344CAB21A70BDF80E3020
:1053B0000133ADF80E309DF806309BB2BDF80E20DB
:1053C0009A42E7D301210448FFF712FDFFF70AFED6
:1053D00000BF05B05DF804FB00120020D4110020CE
:1053E00000B583B003468DF807309DF907300221E0
:1053F000184602F01BF900BF03B05DF804FB82B051
:1054000001900123184602B07047002318467047E8
:1054100000B585B003468DF807309DF80730002BA6
:1054200000F06481FFF7DEFD0021AE48FFF7E0FCED
:105430001D21AD48FFF740FD0521AB48FFF73CFDBE
:105440008021A948FFF738FD0021A748FFF734FD68
:105450000021A548FFF730FD03468DF80F300121EC
:10546000A048FFF7C5FCFFF7BDFD00219D48FFF7F1
:10547000BFFC1D219C48FFF71FFD05219A48FFF73F
:105480001BFD83219848FFF717FD00219648FFF781
:1054900013FD00219448FFF70FFD03468DF80E30F1
:1054A00001219048FFF7A4FCFFF79CFD00218D48E7
:1054B000FFF79EFC1D218C48FFF7FEFC05218A4862
:1054C000FFF7FAFC84218848FFF7F6FC00218648A4
:1054D000FFF7F2FC00218448FFF7EEFC03468DF84D
:1054E0000D3001217F48FFF783FCFFF77BFD002192
:1054F0007C48FFF77DFC1D217B48FFF7DDFC052183
:105500007948FFF7D9FC85217748FFF7D5FC0021C2
:105510007548FFF7D1FC00217348FFF7CDFC034627
:105520008DF80C3001216F48FFF762FCFFF75AFD40
:1055300000216C48FFF75CFC0D216B48FFF7BCFCB9
:1055400005216948FFF7B8FC80216748FFF7B4FCE4
:105550009DF80F3043F00803DBB29BB21946624856
:10556000FFF7AAFC01215F48FFF742FCFFF73AFD75
:1055700000215C48FFF73CFC0D215B48FFF79CFCD9
:1055800005215948FFF798FC83215748FFF794FC01
:105590009DF80E309BB223F008039BB21946524887
:1055A000FFF78AFC01214F48FFF722FCFFF71AFDA5
:1055B00000214C48FFF71CFC0D214B48FFF77CFCF9
:1055C00005214948FFF778FC84214748FFF774FC20
:1055D0009DF80D309BB223F008039BB21946424858
:1055E000FFF76AFC01213F48FFF702FCFFF7FAFCD6
:1055F00000213C48FFF7FCFB0D213B48FFF75CFC1A
:1056000005213948FFF758FC85213748FFF754FC3E
:105610009DF80C309BB223F008039BB21946324828
:10562000FFF74AFC01212F48FFF7E2FBFFF7DAFC06
:1056300000212C48FFF7DCFB0D212B48FFF73CFC39
:1056400009212948FFF738FC20212748FFF734FCBF
:1056500006212548FFF730FC01212248FFF7C8FB4F
:10566000FFF7C0FC00211F48FFF7C2FB1D211E48A9
:10567000FFF722FC09211C48FFF71EFC20211A48D5
:10568000FFF71AFC00211848FFF716FC0021164806
:10569000FFF712FC03468DF80B3001211148FFF78C
:1056A000A7FBFFF79FFC00210E48FFF7A1FB0D2190
:1056B0000D48FFF701FC09210B48FFF7FDFB2021F6
:1056C0000948FFF7F9FB9DF80B3043F00803DBB204
:1056D0009BB219460448FFF7EFFB01210148FFF791
:1056E00087FB44E000120020D4110020FFF77AFC71
:1056F00000212148FFF77CFB1D212048FFF7DCFB40
:1057000009211E48FFF7D8FB20211C48FFF7D4FBD6
:1057100000211A48FFF7D0FB00211848FFF7CCFB07
:1057200003468DF80B3001211348FFF761FBFFF7AB
:1057300059FC00211048FFF75BFB0D210F48FFF7D4
:10574000BBFB09210D48FFF7B7FB20210B48FFF7F2
:10575000B3FB9DF80B309BB223F008039BB21946B4
:105760000648FFF7A9FB01210348FFF741FB00BFF3
:1057700005B05DF804FB00BF00120020D41100202A
:1057800008B50120FFF744FE00BF08BD08B50020A2
:10579000FFF73EFE00BF08BD84B00190244B039389
:1057A000019B002B40D0234B1A680399019B00BF3B
:1057B00000BF00BF00BF00BF00BF00BF00BF8A42E4
:1057C0002FD000BF00BF00BF00BF00BF00BF00BFA1
:1057D00000BF00BF00BF00BF00BF00BF00BF00BFD1
:1057E00000BF00BF00BF00BF00BF00BF00BF00BFC1
:1057F00000BF00BF00BF00BF00BF00BF00BF00BFB1
:1058000000BF00BF00BF00BF00BF00BF00BF00BFA0
:1058100000BF00BF00BF00BF00BF00BF00BF00BF90
:1058200000BF013BC3D1019300BF04B0704700BF6C
:105830000024F4008C00002000B583B00190019B8F
:105840004FF47A7202FB03F31846FFF7A5FF00BF7F
:1058500003B05DF804FB00B583B001900198FFF739
:10586000EBFF00BF03B05DF804FB000082B003460D
:105870008DF807309DF8073003F01F0205499DF9A8
:1058800007305B09012000FA02F241F8232000BF33
:1058900002B0704700E100E082B003468DF80730A7
:1058A0009DF8073003F01F0206499DF907305B0998
:1058B000012000FA02F2603341F8232000BF02B059
:1058C000704700BF00E100E082B0034600918DF810
:1058D00007309DF90730002B0CDA009BDAB20C4937
:1058E0009DF8073003F00F03043B5201D2B20B4482
:1058F0001A7609E0009BDAB206499DF90730520199
:10590000D2B20B4483F8002300BF02B0704700BF3F
:1059100000ED00E000E100E00323184670470000BE
:1059200082B0054BD3F804350193044B1B68019AF0
:10593000D31A184602B07047004002406810002099
:10594000024BD3F804351846704700BF00400240B0
:1059500084B00190064BD3F8043503930449039AAD
:10596000019B1344C1F8403500BF04B0704700BF2D
:105970000040024084B00190094B1B68039308E08B
:10598000039A019B9A4201D1012306E0039B1B6904
:105990000393039B002BF3D10023184604B07047F8
:1059A0006C10002010B584B00190FFF7B5FF0346DE
:1059B0000393019B01221A72019B1C68FFF7B0FF41
:1059C0000246039B13449C4206D2FFF7A9FF0246FE
:1059D000039B1A44019B1A60019B1B681846FFF742
:1059E000B7FF00BF04B010BD00B585B001900C4BEF
:1059F0001B680393039B002B02D0039B00221A72A7
:105A0000019B039A1A61064A019B1360044B1B68B1
:105A10001846FFF7C7FF00BF05B05DF804FB00BFE5
:105A20006C10002084B00190134B1B680393124B41
:105A30001B681B69029312E0019B1A68029B1B689A
:105A40009A4205D9029B0393029B1B69029306E0CD
:105A5000039B019A1A61019B029A1A6109E0039B58
:105A60001B69002BE8D1039B019A1A61019B00225C
:105A70001A6104B0704700BF6C10002010B586B0EA
:105A8000444B0022C3F84021424B0022C3F844217A
:105A9000404B0022C3F848213E4B0022C3F84C2162
:105AA0003C4B0022C3F800213A4B0022C3F80421EA
:105AB000394B1B680493FFF743FF0390364A039B5F
:105AC0001360039A049BD31A0293344B1B68002B78
:105AD0001CD0324B1B68059314E0059B1B69019396
