:10000000000001203902000091020000930200006C
:100010009502000097020000990200000000000015
:100020000000000000000000000000009B02000033
:100030009D020000000000009F020000A1020000DD
:10004000054F0000A7020000794B0000A139000015
:10005000AD020000AF020000DD2E0000B302000080
:10006000B5020000B7020000B9020000BB020000A8
:10007000BD020000BF020000C1020000C302000078
:10008000C5020000C7020000C9020000CB02000048
:10009000CD020000CF020000D1020000D302000018
:1000A000D5020000D7020000D9020000DB020000E8
:1000B000DD020000DF020000A3020000A302000036
:1000C000E1020000E3020000E5020000E702000098
:0C00D00009680000EB020000ED020000D7
:1000DC00354936480A1A02D0072291438D463449D5
:1000EC0034480A1A06D00722914381F30988022268
:1000FC0082F3148830483149314A00F044F83148D1
:10010C003149324A00F03FF831483249324A00F066
:10011C003AF832483249334A00F035F8324833491C
:10012C00334A00F030F833483349344A00F02BF8A6
:10013C0033483449344A00F026F834483449002214
:10014C0000F02CF833483449002200F027F83348EB
:10015C003349091A082902DB002202604160314A46
:10016C0090471F481F49884205D00268043003B4E9
:10017C00904703BCF7E700208646EC4600200021A0
:10018C00294A9047FEE7884207D0521A05D00378D7
:10019C0001300B700131013AF9D17047884202D01D
:1001AC0002700130FAE770470000012000F80020CF
:1001BC000000012000000120C8B30000480000200E
:1001CC0050010020F0020000F0020000BC9E000074
:1001DC00C8B300004800002048000020349F0000F5
:1001EC00349F0000349F0000349F0000349F0000B7
:1001FC00349F0000349F0000349F0000C8B30000FF
:10020C00D0B400005001002050010020500100200B
:10021C004C1300204C1300205013002050130020CE
:10022C00501500205D020000C58900000F484FF0FA
:10023C000701884385460E4880470E48016841F403
:10024C0070010160BFF34F8FBFF36F8FFFF740BF9B
:10025C0009480A490A4A884207D0521A05D003783D
:10026C0001300B700131013AF9D1704700000120C7
:10027C004952000088ED00E0EC9E000000000020D8
:10028C0048000020FEE7FEE7FEE7FEE7FEE7FEE79C
:10029C00FEE7FEE7FEE7FEE7FEE7FEE7FEE7FEE72A
:1002AC00FEE7FEE7FEE7FEE7FEE7FEE7FEE7FEE71A
:1002BC00FEE7FEE7FEE7FEE7FEE7FEE7FEE7FEE70A
:1002CC00FEE7FEE7FEE7FEE7FEE7FEE7FEE7FEE7FA
:1002DC00FEE7FEE7FEE7FEE7FEE7FEE7FEE7FEE7EA
:0402EC00FEE700BF6A
:1002F000004870474413002082B001900091034BE6
:1003000001221A7000BF02B0704700BF90010020A8
:1003100030B58DB003468DF807301A4B02AC1D4640
:100320000FCD0FC495E80F0084E80F000623029359
:100330004FF0FF3303934FF0FF3304934FF0FF333D
:1003400005934FF0EB7308939DF80730002B01D015
:100350000D4A00E0002202AB19460C4804F026F8D2
:100360000B900B9B0A930A9B002B04D0084A432155
:100370000A9801F0C5F8074A9DF80730137000BFCE
:100380000DB030BDE49F0000F902000048000020DD
:10039000349F00009101002000B583B001238DF847
:1003A00007309DF807301846FFF7B2FF00BF03B0D3
:1003B0005DF804FB00B589B0039002910192019BA6
:1003C0008DF81F30124B00221A709DF81F301A460C
:1003D0000299104804F052F90690069B0593059B7C
:1003E000002B04D00C4A5321059801F089F800BF76
:1003F0000A4B1B78002B07D0054B1B78DBB283F030
:100400000103DBB2002BF3D100BF09B05DF804FBA0
:100410009001002048000020349F0000910100203E
:1004200000B585B003900291054B00934023054A27
:100430000299039800F06CFF00BF05B05DF804FB63
:10044000B50300005001002082B0019000BF02B04F
:100450007047000000B583B00190054803F0F8FF35
:100460000020FFF755FF00BF03B05DF804FB00BF9D
:100470004800002082B00190019B01225A7200BF07
:1004800002B0704700B583B04FF0FF33019300F026
:10049000E5FF0421114800F05FFD0190019B002B56
:1004A00003DA0F49412001F058F90C48FFF7E2FF49
:1004B000FFF772FF04210B4800F04EFD0190019BF5
:1004C000002B03DA0649482001F047F90548FFF7F9
:1004D000D1FF00BF03B05DF804FB00BF5000002057
:1004E00010A000005C00002000B583B001900091D6
:1004F000019B1B681B6800990198984700BF03B0D7
:100500005DF804FB00B583B00190019B1B685B683C
:100510000198984700BF03B05DF804FB82B00190DA
:100520000B468DF80330019B9DF803201A7200BF23
:1005300002B0704782B00190019B1B7A184602B04E
:10054000704782B00190019B01225A7200BF02B035
:10055000704782B00190019B5B7A184602B07047E9
:1005600010B487B001900091019B009A53E8004FAE
:1005700044EA020043E8000191F0000FF6D105942F
:1005800004900391049B184607B05DF8044B704734
:1005900010B487B001900091019B009A53E8004F7E
:1005A00004EA020043E8000191F0000FF6D105943F
:1005B00004900391059B184607B05DF8044B704703
:1005C00000B583B0019001210198FFF7C9FF0346F0
:1005D000184603B05DF804FB00B583B0019000211C
:1005E0000198FFF7D5FF0346184603B05DF804FBFA
:1005F00000B587B001901F4BFF229A601D4B00226F
:100600001A601C4B00225A601A4B0022C3F81824AF
:10061000184B0022C3F81424164B002283F81C2424
:10062000154801F0FBFD0490049B002B01D0049BB6
:100630001CE0124A124BD31ADB08039300230593E4
:100640000FE0059A13465B0013449B001A460D4BBE
:1006500013440293059B9AB2029B1A80059B0133B7
:100660000593059A039B9A42EBD30023184607B0E3
:100670005DF804FB64020020C4A00000EC9E0000B2
:10068000BC9E000000000020024A034BD31ADB0886
:1006900018467047EC9E0000BC9E000000B587B075
:1006A00001900B468DF803309DF80330002B23D0CA
:1006B000FFF7EAFF04900023059317E0059A13461D
:1006C0005B0013449B001A460E4B13440393039B99
:1006D0005B881A46019B1B689A4204D1019B059ACC
:1006E0001A60002309E0059B01330593059A049BDA
:1006F0009A42E3D3052300E00023184607B05DF8D3
:1007000004FB00BF0000002000B585B001900B463F
:100710008DF803309DF8032001AB11461846FFF712
:10072000BDFF0346002B07D1019BDB00054A1344A4
:100730000393039B1B6800E00023184605B05DF897
:1007400004FB00BFBC9E000084B001900B468DF8F6
:100750000330019BDB00174A134402939DF80330DA
:10076000013B032B1CD801A252F823F07D070000A7
:10077000850700008D0700009707000002238DF811
:100780000F3011E004238DF80F300DE0029B1B7930
:100790008DF80F3008E0029B5B798DF80F3003E095
:1007A00000238DF80F3000BF9DF80F30184604B0BD
:1007B000704700BFBC9E000000B589B04148FFF7FC
:1007C000FFFE4148FFF7FCFE404B5B6807933F4B41
:1007D0009B680493079A049B134002339B003B4A97
:1007E0001344043306931BE0079B01330793069BD6
:1007F0005B88C3F389139BB21A46069B1B88C3F31D
:1008000089139BB213441A46079B13440793079A14
:10081000049B134002339B002C4A13440433069379
:10082000069B1B7803F00303DBB2002BDCD0002314
:10083000059311E0079B5A1C0792049A1340059AEE
:10084000920069460A44214902339B000B445B68CD
:100850001360059B01330593059B012BEAD99DF895
:100860000030C3F30103DBB2012B0CD0022B14D1F7
:10087000BDF80230C3F389139BB203339B08079A78
:10088000134407930FE0BDF80030C3F38313DBB2CA
:100890001A46079B1344079305E00D4940F24D109B
:1008A00000F05BFF00BF0848FFF796FE0390039B34
:1008B000002B02D0054A079B536000BF09B05DF8CA
:1008C00004FB00BF7C0600207806002064020020A4
:1008D000E8A0000010B586B0039002910192009349
:1008E000039B1B0CADF81630BDF81640FFF7CCFE8D
:1008F00003469C4204D323494FF4B27000F02DFF0D
:10090000009B5A1C089B1340BDF816201E49023359
:100910009B000B445A60009A089B134002339B00D3
:10092000194A134404330493039B1B0903F0010386
:10093000D9B2049A137861F382031370039B03F016
:100940000703D9B2049A137861F3C5031370019BAE
:1009500003F00F03D9B2049A138861F3891313804B
:10096000029BC3F31501049A136861F39F2313607C
:10097000049A1378012161F30103137000BF06B0DC
:1009800010BD00BFE8A000006402002000B589B0DF
:1009900001900091019B02330693022305930123EA
:1009A0008DF81330002000F091FE214B1A68009B57
:1009B0001A601F4B9A681E4B59681D4B1B68CB1A57
:1009C000134401330793069A059B134403930BE0EA
:1009D000FFF7F2FE164B9A68154B5968144B1B68CB
:1009E000CB1A134401330793039A079B9A42EFD81B
:1009F0000F4B1A680E4B9B68134002339B000C4A46
:100A0000134404330293029A137843F003031370E0
:100A1000074B1A68069B1344054A1360002000F038
:100A200069FE9DF81330184609B05DF804FB00BF5D
:100A30006402002000B58BB00590049103920293EC
:100A40001F4B9B68079306AB19460298FFF79EFF62
:100A50000346002B24D0069B0233099300230893FE
:100A600011E0089B9B00039A1A44099B591C0991A9
:100A700007990B401268124902339B000B445A60DD
:100A8000089B01330893089A029B9A42E9D3069A7D
:100A9000079B00931346029A04990598FFF71AFFE3
:100AA000074B93F81C34002B05D000BF00F064F80E
:100AB0000346002BFAD100BF0BB05DF804FB00BF6A
:100AC0006402002000B583B0019000910023002251
:100AD00000990198FFF7AEFF00BF03B05DF804FB7B
:100AE00000B587B0039002910192019B059305AA7E
:100AF000012302990398FFF79DFF00BF07B05DF83F
:100B000004FB00B587B00390029101920093019B12
:100B10000493009B059304AA022302990398FFF70C
:100B200089FF00BF07B05DF804FB00B589B00390F2
:100B3000029101920093019B0493009B05930A9BF1
:100B400006930B9B079304AA042302990398FFF7CB
:100B500071FF00BF09B05DF804FB0000054B5A6847
:100B6000044B1B689A420CBF01230023DBB21846DA
:100B7000704700BF6402002000B597B0FFF7EEFF9A
:100B80000346002B01D00023ABE1AB4B0022C3F89E
:100B90001824BFF34F8FA84B5B681593A64B9B6837
:100BA0000E93159A0E9B134002339B00A24A1344E6
:100BB00004331493002313930023129300230D9303
:100BC0001BE0159B01331593149B5B88C3F38913BA
:100BD0009BB21A46149B1B88C3F389139BB2134420
:100BE0001A46159B13441593159A0E9B1340023316
:100BF0009B00914A134404331493149B1B7803F015
:100C00000303DBB2002BDCD00023119311E0159B12
:100C10005A1C15920E9A1340119A920069460A4482
:100C2000854902339B000B445B681360119B0133C1
:100C30001193119B012BEAD99DF8003003F00303B7
:100C4000DBB2022B40F09C80BDF80230C3F3891365
:100C50009BB20C93BDF80230C3F389139BB2502BA7
:100C600028BF50239BB20B930B9BC3F309039AB28B
:100C7000BDF8023062F38F13ADF802300B9B0833DE
:100C80000A939DF80030C3F3C203DBB20D930A99B7
:100C90006A4801F0CEFA1390139B002B00F0E0801D
:100CA000139801F056FB6946129B0822139801F035
:100CB000F9FB129B08331293159BDA430E9B1340EA
:100CC00001339B0009930B9A099B9A4242D9099BD5
:100CD000002B08D0159A0E9B134002339B00564AF6
:100CE0001344043300E0564B0893099B002B02D0B9
:100CF000099BDBB201E00B9BDBB28DF81F30099B37
:100D0000002B01D04E4B00E000230693099B002BE3
:100D100006D00B9BDAB2099BDBB2D31ADBB200E040
:100D200000238DF817309DF81F20129B0899139807
:100D300001F0B8FB9DF81F30129A13441293069BE2
:100D4000002B16D09DF81720129B0699139801F0DE
:100D5000A9FB0EE0159A0E9B134002339B00364A06
:100D6000134404330493129B0B9A0499139801F0D3
:100D700099FB0C9B03339B08159A134415936FE062
:100D80009DF8003003F00303DBB2012B5AD1BDF80C
:100D90000030C3F38313DBB2062B28BF0623DAB27D
:100DA000BDF8003062F38913ADF80030BDF80030B3
:100DB000C3F38313DBB2023303939DF80030C3F314
:100DC000C203DBB20D93039B9B0019461B4801F045
:100DD00030FA1390139B002B42D0139801F0B9FA0C
:100DE0006946129B0822139801F05CFB129B0833A2
:100DF00012930023119314E0159B5A1C15920E9A1E
:100E0000134002339B000C4A1344191D129B042209
:100E1000139801F047FB129B04331293119B01338B
:100E20001193BDF80030C3F38313DBB21A46119B54
:100E30009342E1D314E000BF64020020C4A000008C
:100E4000700200209DF8003003F00303DBB2032B97
:100E500006D1264BD3F81834002B01D1002340E0F3
:100E6000139B002B37D0214BD3F8103410931F4B1A
:100E7000D3F81834002B1AD0139801F079FA2AE02D
:100E800000238DF83F301098FFF763FB0346002BDB
:100E900002D001238DF83F309DF83F30002B03D066
:100EA00013991098FFF720FB109B5B681093109B21
:100EB000002BE5D1139801F05BFA002000F006FC4E
:100EC0000A4BD3F81834002B02D1084A159B536003
:100ED000002000F00FFCFFF741FE034683F0010302
:100EE000DBB2184617B05DF804FB00BF64020020B7
:100EF00000B585B00023039322E0164BD3F81034DD
:100F0000029301238DF807300EE00298FFF712FBE1
:100F100003461A46039B934203D100238DF8073002
:100F200005E0029B5B680293029B002BEDD19DF8CC
:100F30000730002B01D0039B07E0039B0133039391
:100F4000039B092BD9DD4FF0FF33184605B05DF840
:100F500004FB00BF6402002000B585B001900B4681
:100F60008DF80330FFF7C4FF0390039BB3F1FF3FFD
:100F700001D1039B1EE0039BDBB219460198FFF7EA
:100F8000CDFA0E4BD3F81034002B07D10B4A019B3E
:100F9000C2F81034019B00225A600AE0074BD3F8D4
:100FA00010345A68019B5A60044BD3F81034019AEC
:100FB0005A60039B184605B05DF804FB64020020EC
:100FC00000B583B00C4BD3F8103401930A4B0122C7
:100FD00083F81C2408E00198FFF7B3FA0198FFF7A3
:100FE00091FA019B5B680193019B002BF3D100BF39
:100FF00003B05DF804FB00BF6402002010B582B0AE
:1010000001900091019BDB7983F00103DBB2002B9F
:1010100028D0019B1B7A002B12D0019B9B881A467B
:10102000019B9B7919461046FFF78EFB03461A4633
:101030000E4B53F822301A460D49009800F0C0FCC0
:10104000019B9B791A460B4B53F82240019B9B88CE
:1010500000211846FFF758FB034622460649009830
:1010600000F0AEFC00BF02B010BD00BF7C0000204D
:10107000FCA100006800002000A2000000B585B0BF
:101080000390029113468DF80730039BDB7983F0C0
:101090000103DBB2002B0FD0039B1B7A002B06D081
:1010A0000D4B1B681A460D49029800F089FC0C494B
:1010B000029800F085FC07E09DF80730002B03D074
:1010C0000749029800F07CFC029800F057FC00BF32
:1010D00005B05DF804FB00BF7C000020FCA100000F
:1010E0000CA2000030B58BB00790069105920493D6
:1010F0000E9B1B7B8DF827300E9B00221A730E99D6
:101100000498FFF77BFF059B062B7FD801A252F8BE
:1011100023F000BF311100003B1100004B11000013
:101120005F1100007D110000A5110000D511000025
:1011300007990E9800F044FC69E0069B1B681A466C
:1011400007990E9800F03CFC61E0069B1A68069B2C
:1011500004331B6807990E9800F032FC57E0069B99
:101160001A68069B04331968069B08331B680093B2
:101170000B4607990E9800F023FC48E0069B19687F
:10118000069B04331868069B08331B68069A0C32CA
:1011900012680192009303460A4607990E9800F0E0
:1011A0000FFC34E0069B1868069B04331C68069B02
:1011B00008331B68069A0C321268069910310968C8
:1011C0000291019200932346024607990E9800F07F
:1011D000F7FB1CE0069B1C68069B04331D68069BFE
:1011E00008331B68069A0C32126806991031096898
:1011F00006981430006803900291019200932B46E8
:10120000224607990E9800F0DBFB00E000BF0022A9
:101210000E990498FFF732FF0E9B9DF827201A7352
:1012200000BF0BB030BD00BF00B587B00390029186
:1012300001920093029B082B5CD8009B1B7B8DF8CE
:101240001330009B00221A7300990198FFF7D6FE15
:101250000023059314E0059A029B9A4209D2039A4F
:10126000059B13441B781A462449009800F0A8FBFC
:1012700003E02349009800F0A3FB059B013305938D
:10128000059B072BE7D91F49009800F099FB002325
:10129000059322E0059A029B9A4217D2039A059B76
:1012A00013441B788DF812309DF81230184608F060
:1012B00047FD0346002B02D09DF8123000E02E239C
:1012C0001A461149009800F07BFB03E00F49009893
:1012D00000F076FB059B01330593059B072BD9D9BD
:1012E000012200990198FFF7C9FE009B9DF8132089
:1012F0001A7300E000BF07B05DF804FB10A2000005
:1013000018A200001CA2000020A2000024A20000DD
:1013100000B5A1B00590049103920293049801F0E6
:1013200018F8039B1593029B169300231793002331
:101330008DF8603000231993229B1A9300231F938A
:101340000FA91F9B0822049801F0BEF808231F93E1
:10135000119B1293109B9BB2ADF84C3000238DF87B
:1013600050309DF83C3003F00303DBB2012B32D147
:101370000F9BC3F395231D939DF83C30C3F3C20329
:10138000DBB28DF84E309DF83C30C3F38003DBB206
:10139000002B14BF01230023DBB28DF84F30BDF8C2
:1013A0003C30C3F38313DBB21C931C9B9A0009A946
:1013B0001F9B049801F088F81C9B9B001F9A134404
:1013C0001F9312AA09A915AB009313461C9A1D98E6
:1013D000FFF788FE3BE09DF83C3003F00303DBB2EF
:1013E000022B34D1BDF83E30C3F389139BB21E9358
:1013F0009DF83C30C3F3C203DBB28DF84E309DF84C
:101400003C30C3F38003DBB2002B14BF0123002365
:10141000DBB28DF84F301E9B082B28BF08231B938F
:1014200007A91F9B1B9A049801F04EF81F9A1B9B5B
:1014300013441F931E9A1B9BD31A1E9315AB12AA1B
:1014400007A81B99FFF7F0FE1E9B002BE3D1049821
:1014500000F08EFF00BF21B05DF804FB08B503F07B
:10146000D1FE00BF08BD00B589B003900291019282
:10147000019B002B22D0002307930A230693029A94
:10148000079B1344019A1946002003F06DFE059056
:10149000079A059B13440793019A059BD31A01935E
:1014A000059B002B05D1069B013B0693069B002B59
:1014B00003D0019B002BE2D100E000BF00BF09B0C8
:1014C0005DF804FB00B585B003900291054B0093D5
:1014D0004023054A02990398FFF71AFF00BF05B0A1
:1014E0005DF804FB671400008406002082B00190C0
:1014F00000BF02B0704782B0019000BF02B07047D9
:1015000000B589B0039002910192029B9BB2ADF8A5
:101510001430019B0693039B079305AB1A460021E9
:1015200044F2010000F050F800BF09B05DF804FB80
:1015300086B003900291019201238DF817309DF837
:101540001730204A039B13601E4A029B53601D4ABA
:10155000019B9360039B44F20102934213D0039BCF
:1015600044F20202934222D1019B164AD360154BEA
:10157000DB681B881A46134B9A61124BDB685B6869
:10158000104AD36113E0019B0E4A13610D4B1B6996
:101590009B680C4A53610B4B1B691B881A46094B0D
:1015A0009A61084B1B695B68064AD36100BF72B63B
:1015B00000BF9DF81730DBB2002BFAD162B600BF36
:1015C00006B07047C406002030B589B0059004917C
:1015D0000392FFF7F5FC00BFFFF7CEFA0346002B9E
:1015E000FAD1059B44F20102934214D0059B44F2C8
:1015F000020293422DD1039B0793234B1B881B04AC
:1016000043F00100079B5B681A46079B1B881F4934
:10161000FFF777FA28E0039B06931B4B1B881B04FC
:1016200043F00104069B9D68069B9B68184600F0EA
:101630005DFF03461946069B5B681A46069B1B889E
:10164000019300920B462A4611492046FFF76DFA96
:101650000AE00D4B1B881B0443F00103049A0D495B
:101660001846FFF73DFA00BF0B4B1B6803F0010360
:10167000002B00D0FFDE039A04990598FFF758FF6E
:1016800000BF09B030BD00BF0000002034A2000040
:1016900050A2000068A20000F0ED00E072B6034B1B
:1016A0001B680133014A136000BF7047E406002045
:1016B000054B1B68013B044A1360034B1B68002B5E
:1016C00000D162B600BF7047E406002000B583B0C9
:1016D000019000F025F80346012B03D00449432074
:1016E00000F03BF8FFF7DAFF00BF03B05DF804FB42
:1016F00080A2000000B583B003468DF8073000F0EB
:101700000FF80346012B03D00449512000F025F8BF
:10171000FFF7CEFF00BF03B05DF804FB80A200001E
:1017200084B0EFF305830193019BC3F30803039394
:10173000039B002B0DD1EFF314830093009B0293C6
:10174000029B03F00103002B0CBF01230023DBB23B
:1017500000E00123184604B0704700B585B0034689
:101760000091ADF80630BDF80630ADF80830009BAA
:10177000039302AB1A46002144F20200FFF724FF54
:1017800000BF05B05DF804FB00B583B001900B46C7
:101790008DF80330019B002B03D10849AF20FFF7E0
:1017A000DCFF019BDA689DF803300199098A01FB8F
:1017B00003F31344184603B05DF804FB24A30000B0
:1017C00000B583B001900091019B002B03D1084923
:1017D000BC20FFF7C2FF009B019AD2689B1A019AB6
:1017E000128AB3FBF2F3DBB2184603B05DF804FBD8
:1017F00024A3000000B585B00190019B002B01D10E
:101800000E2348E0019B1B68002B03D12449C6200E
:10181000FFF7A3FF019B5B68002B03D12049C72082
:10182000FFF79BFF019B9B68002B03D11C49C8203D
:10183000FFF793FF019BDB68002B03D11849C920F8
:10184000FFF78BFF019B1B8A002B03D11449CA2091
:10185000FFF783FF019B9A68019B5B68D31A8DF8A1
:101860000F30019B1B68019A52681A6007E0019BC8
:101870001A681368591C11609DF80F201A709DF8A2
:101880000F305A1E8DF80F20002BF0D1019B1B68E2
:1018900000221A710023184605B05DF804FB00BF52
:1018A00024A3000000B585B00190019B002B03D15B
:1018B0001B49EC20FFF751FF002303930020FFF7A3
:1018C00005FF019B1B681A68019B5B689A421FD940
:1018D000019B1B681A68013A1A601B681B7819463D
:1018E0000198FFF751FF0390019B9A68019B1B68C9
:1018F0001B68D31A8DF80B30019B1B681B799DF870
:101900000B209A4204D9019B1B689DF80B201A7189
:101910000020FFF7EFFE039B184605B05DF804FBBF
:1019200024A3000010B584B001900091019B002B0E
:1019300004D111494FF48870FFF70FFF009B002B73
:1019400004D10D4940F21110FFF707FF009B0393EC
:101950000020FFF7BBFE019B1B681C68621C1A601D
:1019600003990198FFF72CFF034623700020FFF72F
:10197000C1FE00BF04B010BD24A3000000B583B0B9
:101980000190019B002B03D10C493120FFF7E5FEAC
:10199000019B9B68002B0CD0019B5B69019A10692D
:1019A000019A1168019A92689847019B00229A60F7
:1019B00000E000BF03B05DF804FB00BFBCA3000063
:1019C0000EB400B584B00190019B002B03D11849DF
:1019D0004220FFF7C2FE019B5B69002B03D1144933
:1019E0004320FFF7BAFE019B1B68002B03D110496F
:1019F0004420FFF7B2FE019B5B68002B03D10C492A
:101A00004520FFF7AAFE059B002B0AD00023039375
:101A100006AB039303AB1A460599019800F0B0F9A1
:101A200000E000BF04B05DF804EB03B0704700BFF6
:101A3000BCA3000000B583B001900B468DF80330C5
:101A4000019B1A68019B9B68581C0199886013448C
:101A50009DF803201A70019B9A68019B5B689A426B
:101A600002D30198FFF78AFF00BF03B05DF804FBC3
:101A700000B587B003900291019200930023059373
:101A8000009B03F00103002B24D00BE0029B0133E9
:101A90000293059B013305939DF813301946039873
:101AA000FFF7C8FF029B1B788DF813309DF81330A9
:101AB000002BEBD106E0019B013B01932021039811
:101AC000FFF7B8FF019A059B9A422ED9019B002B84
:101AD000F1D12AE0029B002B0BD0029808F0BEF94E
:101AE000059006E0019B013B019320210398FFF73D
:101AF000A1FF019A059B9A420FD9019B002BF1D1BE
:101B00000BE0029B01330293059B013305939DF883
:101B1000133019460398FFF78DFF029B1B788DF851
:101B200013309DF81330002BEBD100BF07B05DF8E8
:101B300004FB000000B589B003900291019200936C
:101B4000029B07930123069307E0079A019BB2FBD0
:101B5000F3F30793069B01330693079A019B9A427E
:101B6000F3D2009A069B9A4201D9009B06930B9BE5
:101B700003F00103002B22D10A9B002B1FD00B9BEB
:101B800003F00203002B06D0009B002B03D130236F
:101B90008DF8173002E020238DF8173008E00A9BFB
:101BA000013B0A939DF8173019460398FFF742FF4F
:101BB0000A9B002B03D0069A0A9B9A42EFD301237B
:101BC0000793009B012B03D9009B013B009309E085
:101BD000029A079BB2FBF3F30493049A019B9A4287
:101BE00000D205E0079B019A02FB03F30793E8E7A5
:101BF000029A079BB2FBF3F30493049B079A02FB40
:101C000003F3029AD31A0293154A049B13441B78D8
:101C100019460398FFF70EFF079A019BB2FBF3F3F7
:101C20000793079B002BE3D10B9B03F00103002BD1
:101C300011D00A9B002B0ED006E00A9B013B0A93B1
:101C400020210398FFF7F6FE0A9B002B03D0069A8B
:101C50000A9B9A42F1D300BF09B05DF804FB00BFB4
:101C6000DCA4000000B589B00590049103920293B2
:101C7000049B002BB8BF5B4206930123079307E048
:101C8000039B069A92FBF3F30693079B013307939A
:101C9000039B069A9A42F3DA029A079B9A4201D969
:101CA000029B07930A9B002B0AD0049B002B04DBAA
:101CB0000B9B03F00403002B02D00A9B013B0A9309
:101CC0000B9B03F00203002B02D0029B002B16D0CB
:101CD0000B9B03F00103002B11D10A9B002B0ED0AC
:101CE00006E00A9B013B0A9320210598FFF7A2FE1C
:101CF0000A9B002B03D0079A0A9B9A42F1D3049BBC
:101D0000002B07DA049B5B4204932D210598FFF713
:101D100091FE08E00B9B03F00403002B03D02B2162
:101D20000598FFF787FE0B9B03F00203002B19D0E9
:101D30000B9B03F00103002B14D1029B002B11D14C
:101D40000A9B002B0ED006E00A9B013B0A93302130
:101D50000598FFF76FFE0A9B002B03D0079A0A9B9A
:101D60009A42F1D304990B9B01930A9B0093029B27
:101D7000039A0598FFF7DEFE00BF09B05DF804FB8B
:101D800000B58FB0059004910392059B002B04D100
:101D9000C8494FF49F70FFF7E0FC059B5B69002B7F
:101DA00004D1C4494FF4A070FFF7D7FC059B1B6812
:101DB000002B04D1BF4940F24110FFF7CEFC059B38
:101DC0005B68002B04D1BB494FF4A170FFF7C5FC41
:101DD000049B002B00F0ED81049B1B788DF83730BD
:101DE000049B013304939DF83730002B00F0D88119
:101DF0009DF83730252B40F0C78100230A9301233B
:101E00000C93049B1B788DF837309DF837302D2BC1
:101E100004D0302B0AD02B2B10D017E00A9B43F0B4
:101E200001030A93049B0133049312E00A9B43F0DD
:101E300002030A93049B013304930AE00A9B43F0D4
:101E400004030A93049B0133049302E000230C93E0
:101E500000BF0C9B002BD4D1002309939DF8373091
:101E60002A2B0CD1039B1B68191D039A11601B6858
:101E7000099A13440993049B013304931AE0049BC9
:101E80001B788DF837309DF837302F2B12D99DF8FD
:101E90003730392B0ED8049B01330493099A13462B
:101EA0009B0013445B001A469DF837301344303BC7
:101EB0000993D3E700230B93049B1B788DF83730ED
:101EC0009DF837302E2B1DD1049B01330493049BC6
:101ED0001B788DF837309DF837302F2B12D99DF8AD
:101EE0003730392B0ED8049B013304930B9A1346D9
:101EF0009B0013445B001A469DF837301344303B77
:101F00000B93E4E7049B1B788DF837309DF837304E
:101F10006C2B03D09DF83730682B07D1049B01331D
:101F20000493049B1B788DF83730EFE79DF837302A
:101F3000253B532B00F2238101A252F823F000BF6E
:101F4000752100007F2100007F2100007F2100001B
:101F50007F2100007F2100007F2100007F21000001
:101F60007F2100007F2100007F2100007F210000F1
:101F70007F2100007F2100007F2100007F210000E1
:101F80007F2100007F2100007F2100007F210000D1
:101F90007F2100007F2100007F2100007F210000C1
:101FA0007F2100007F2100007F2100007F210000B1
:101FB0007F2100007F2100007F2100007F210000A1
:101FC0007F2100007F2100007F2100007F21000091
:101FD0007F2100007F2100007F2100007F21000081
:101FE0007F2100007F2100007F2100007F21000071
:101FF0007F2100007F2100007F2100007F21000061
:102000007F2100007F2100007F21000001210000CE
:102010007F2100007F2100007F2100007F21000040
:102020007F2100007F2100007F2100007F21000030
:102030007F2100007F21000091200000B9200000D6
:102040007F2100007F2100007F2100007F21000010
:10205000B92000007F2100007F2100007F210000C7
:102060007F2100007F2100007F210000412100002E
:102070007F2100007F210000252100007F2100003A
:10208000DD2000007F2100007F21000001210000F1
:10209000039B1B68191D039A11601B680C930C9B12
:1020A0008DF823309DF8233019460598FFF7C2FCC0
:1020B00066E000BF48A40000039B1B68191D039A3B
:1020C00011601B680C930A9B0193099B00930B9B67
:1020D0000A220C990598FFF7C5FD51E0039B1B6888
:1020E000191D039A11601B680C930C990A9B0193AC
:1020F000099B00930B9B0A220598FFF71BFD3FE00D
:10210000039B1B68191D039A11601B680C930C99A3
:102110000A9B0193099B00930B9B10220598FFF7E4
:1021200009FD2DE0039B1B68191D039A11601B68B4
:1021300007930A9B099A07990598FFF799FC1FE0F6
:10214000039B1B68191D039A11601B680C933021B7
:102150000598FFF76FFC78210598FFF76BFC0C9949
:102160000023019308230093082310220598FFF70A
:10217000E1FC05E025210598FFF75CFC00E000BFCD
:10218000049B0133049305E09DF837301946059808
:10219000FFF750FC049B1B78002B7FF41DAE00E082
:1021A00000BF059B1B7B002B04D00598FFF7E6FBC7
:1021B00000E000BF0FB05DF804FB00BF10B487B0B3
:1021C00001900091019B009A53E8004F04EB02003C
:1021D00043E8000191F0000FF6D1059404900391BB
:1021E000049B184607B05DF8044B704710B487B0E5
:1021F00001900091019B009A53E8004FA4EB02006C
:1022000043E8000191F0000FF6D10594049003918A
:10221000049B184607B05DF8044B704700B583B0C7
:1022200001900198FFF7E6FA0346184603B05DF8FF
:1022300004FB00B58BB001900091019B1B8A043B0D
:102240000793009A079B1344DA1C079BB2FBF3F336
:102250008DF81B300198FFF725FB0590059B002B9F
:1022600001D1002338E0059B00221A71059B012251
:102270005A71079B9AB2059BDA80059B09939DF8DA
:102280001B30013B0493099B019A1A6000230893B9
:102290001DE00198FFF706FB0390039B002B0ED077
:1022A000059B5B790133DAB2059B5A71099B039A4E
:1022B0001A60039B019A1A60039B099304E0059836
:1022C00000F00EF8002307E0089B01330893089AFA
:1022D000049B9A42DDD3059B18460BB05DF804FBC6
:1022E00000B58BB00190019B0793079B5B798DF83C
:1022F0001B30019B08939DF81B30013B0593002385
:10230000099305E0089B1B680893099B0133099317
:10231000099A059B9A42F5D3089B1B680493019B7D
:102320000893002309930BE0089B1B68039308990B
:102330000498FFF7F7FA039B0893099B013309936D
:102340009DF81B30099A9A42EED300BF0BB05DF89E
:1023500004FB00B585B00190019B0393039B0433FC
:1023600001211846FFF72AFF00BF05B05DF804FB06
:1023700000B587B00190019B0593059B04330121B3
:102380001846FFF733FF0346039303AB0493049B04
:102390001B78002B02D10198FFF7A2FF00BF07B006
:1023A0005DF804FB00B58DB003900291019200939B
:1023B000039B0693069BDB880593039B0B93009B73
:1023C0001A1D059BB2FBF3F30A93009B0433059A95
:1023D000B3FBF2F2059901FB02F29B1A0993009AF2
:1023E000019B1A44059B1344DA1C059BB2FBF3F3D3
:1023F0008DF81330069B5B799DF813209A420AD919
:102400002749BA20FFF7A9F905E00B9B1B680B933E
:102410000A9B013B0A930A9B002BF6D100230893E9
:10242000059A099BD31A0793079A019B934228BFE9
:10243000134607932DE09DF83830002B0BD0029AFD
:10244000089BD0180B9A099B13440433079A19462A
:1024500007F086FC0AE00B9A099B1344181D029AA8
:10246000089B1344079A194607F07AFC0023099346
:102470000B9B1B680B93019A079BD31A0193089A35
:10248000079B13440893059A019B934228BF134668
:102490000793019B002BCED100BF0DB05DF804FB6C
:1024A000ECA4000000B587B005900491039202935C
:1024B00000230093029B039A04990598FFF772FF8B
:1024C00000BF07B05DF804FB00B587B0059004912C
:1024D0000392029301230093029B039A04990598A7
:1024E000FFF760FF00BF07B05DF804FB00B585B0E3
:1024F0000190019800F00EF80390039B002B01D08F
:10250000039B00E0024B184605B05DF804FB00BFDA
:1025100090A5000086B00190164B0593164B0493CE
:102520001FE0049A059BD31ADB10DA0F13445B10EB
:10253000DB00059A13440393039B1B680293029AE2
:10254000019B9A4202D9039B04930AE0029A019BE1
:102550009A4203D2039B0833059302E0039B5B6816
:1025600004E0059A049B9A42DBD30023184606B088
:10257000704700BFACA800009CA9000082B00346D1
:102580008DF807309DF8073003F01F0205499DF9CB
:1025900007305B09012000FA02F241F8232000BF56
:1025A00002B0704700E100E082B003468DF80730CA
:1025B0009DF8073003F01F0206499DF907305B09BB
:1025C000012000FA02F2603341F8232000BF02B07C
:1025D000704700BF00E100E082B0034600918DF833
:1025E00007309DF90730002B0CDA009BDAB20C495A
:1025F0009DF8073003F00F03043B5201D2B20B44A5
:102600001A7609E0009BDAB206499DF907305201BB
:10261000D2B20B4483F8002300BF02B0704700BF62
:1026200000ED00E000E100E000B583B003460A469B
:102630008DF8073013468DF806309DF80630072BCD
:1026400004D90D494FF49270FFF787F89DF80620E2
:102650009DF9073011461846FFF7BEFF9DF9073078
:102660001846FFF7A1FF9DF907301846FFF786FFD0
:1026700000BF03B05DF804FB9CA9000000B583B067
:102680000346ADF80630BDF80630184600F026F8CF
:1026900003461B68012B0CBF01230023DBB2184645
:1026A00003B05DF804FB00B585B00346ADF8063015
:1026B000BDF80630184600F011F803461A4600230C
:1026C0001360BDF80630184600F008F803461B6892
:1026D0000393039B00BF05B05DF804FB82B0034683
:1026E000ADF80630BDF8063003F1804303F5C04372
:1026F000184602B07047000082B00190034A019B67
:10270000C2F8043300BF02B0704700BF0060004051
:1027100082B00190034BD3F80423019B1340184669
:1027200002B070470060004082B00190084A019BEF
:1027300003F5A27352F82330054943F00102019BCF
:1027400003F5A27341F8232000BF02B0704700BF19
:102750000060004084B00390029113468DF807306A
:10276000144A039B03F5A27352F82330114923F452
:10277000473323F44073039A02F5A27241F82230E2
:102780000C4A039B03F5A27352F82320029B1B0201
:1027900003F4F8519DF807301B0403F440330B4356
:1027A00004491A43039B03F5A27341F8232000BF99
:1027B00004B070470060004082B00190054A019B60
:1027C00003F5A27352F823301B0A03F01F031846C7
:1027D00002B070470060004082B00190064A019B41
:1027E00003F5A27352F823301B0C03F00303DBB292
:1027F000184602B0704700BF0060004000B583B0CB
:102800000190019B1B681F2B04D905494FF4E87008
:10281000FEF7A3FF4FF0A043184603B05DF804FB9A
:1028200038AA000000B585B00190084611461A4646
:1028300003468DF803300B468DF8023013468DF8B1
:10284000013001AB1846FFF7D9FF03909DF8032034
:102850009DF802305B001A439DF801309B001A433B
:102860009DF818301B0242EA03019DF81C301B043E
:10287000019A1943039B02F5E07243F8221000BF4E
:1028800005B05DF804FB00B585B003900B468DF8EC
:102890000B309DF80B200023019300230093134677
:1028A000002200210398FFF7BDFF00BF05B05DF8CF
:1028B00004FB00B585B0019001AB1846FFF79EFF01
:1028C0000390019A039B02F5E07253F8223023F043
:1028D00002030293019A039B02F5E072029943F806
:1028E000221000BF05B05DF804FB00B585B0019073
:1028F0000B468DF8033001AB1846FFF77FFF0390BE
:10290000019A039B02F5E07253F82230019A23F4F6
:102910004031039B02F5E07243F82210019A039BB9
:1029200002F5E07253F822309DF80320120411469C
:10293000019A1943039B02F5E07243F8221000BF8D
:1029400005B05DF804FB00B585B0019001AB1846F9
:10295000FFF754FF0390039800F020F80246019B14
:1029600022FA03F303F00103184605B05DF804FBF7
:1029700000B585B0019001AB1846FFF73FFF03900B
:10298000019A039B02F5E07253F822301B0C03F00E
:102990000303DBB2184605B05DF804FB82B001907A
:1029A000019BD3F81035184602B0704700B587B0C8
:1029B0000390029101924FF0A0430493039A029B6B
:1029C0001344012B04D912494FF43A70FEF7C5FEA7
:1029D000039B059311E0059B9B0006AA134453F843
:1029E000083C1846FFF7DAFF0246019B1A60019B7C
:1029F00004330193059B01330593039A029B13440F
:102A0000059A9A42E7D300BF07B05DF804FB00BF08
:102A100038AA000084B001900091009B0393019BB1
:102A2000DB080293019B03F0070301930122019B42
:102A300002FA03F30399029A0A44127813401846E3
:102A400004B0704784B001900091009B0393019BF8
:102A5000DB080293019B03F007030193039A029B97
:102A600013441B785AB20121019B01FA03F35BB2B4
:102A7000134359B2039A029B1344CAB21A7000BF9F
:102A800004B0704782B001900C4A019B1344383364
:102A900093F90030002B09DB084A019B13443833BB
:102AA00093F90030072B01DC012300E0002303F041
:102AB0000103DBB2184602B0704700BFE8060020F1
:102AC00082B00190064A019B1344383393F90030D9
:102AD000072BCCBF01230023DBB2184602B070479E
:102AE000E806002082B00190064A019B1344383367
:102AF00093F90030DB43DBB2DB09DBB2184602B0EE
:102B0000704700BFE806002084B003900291019254
:102B10008DF80330029B59B20E4A039B134438339D
:102B20000A461A700B49029B019A41F823209DF82E
:102B3000033083F00103DBB2002B08D0029B083B7B
:102B4000039A51B2034A13440A4683F8582000BF3F
:102B500004B07047E806002082B00190044A019B4F
:102B600013443833FF221A7000BF02B0704700BF11
:102B7000E806002082B00190044A019B13443833D8
:102B800093F90030184602B0704700BFE8060020F5
:102B900082B00190034A019B52F82330184602B0DC
:102BA000704700BFE806002000B589B0039002918D
:102BB00013468DF80730FF238DF81F309DF807303E
:102BC000002B01D0002300E0082305939DF8073077
:102BD000002B01D0082300E00E230493059B0693ED
:102BE00014E00F4A069B52F82330B3F1FF3F0AD19D
:102BF0009DF80730029A06990398FFF785FF069B18
:102C00008DF81F3006E0069B01330693069A049B5D
:102C10009A42E6D39DF91F30184609B05DF804FBCF
:102C2000E806002082B003468DF807309DF8073093
:102C3000094A4FF0FF3142F823109DF80730072B67
:102C400007D99DF80730083B034A1344FF2283F855
:102C5000582000BF02B07047E806002000B583B0DE
:102C6000214B93F85E30002B03D008230093009B88
:102C700036E000238DF8073009E09DF8073018464C
:102C8000FFF76AFF9DF8073001338DF807309DF894
:102C900007301F2BF1D900238DF8073009E09DF88C
:102CA00007301846FFF7BEFF9DF8073001338DF857
:102CB00007309DF807300D2BF1D907210620FFF7CB
:102CC000B3FC4FF4BE70FFF7EEFC4FF00040FFF78F
:102CD00013FD054B012283F85E2000230093009B27
:102CE000184603B05DF804FBE8060020044B93F897
:102CF0005E30002B14BF01230023DBB2184670475F
:102D0000E806002000B587B0039002910192039B72
:102D10001F2B04D92B4940F2F710FEF71EFD0023AC
:102D200005930398FFF7DEFE0346002B02D008232D
:102D3000059341E0029BDB781A4601990398FFF75F
:102D400033FF03468DF813309DF91330B3F1FF3F85
:102D500030D0029B9B78002B03D00398FFF7A9FD8E
:102D600005E0029B5B7819460398FFF78CFD029BF8
:102D7000DB78002B08D09DF91300029B1B781A46C4
:102D80000399FFF7E7FC17E09DF91330083B0E4A63
:102D9000134493F95810029B1B789B015AB29DF97A
:102DA0001330083B0A4351B2074A13440A4683F8DA
:102DB000582001E004230593059B184607B05DF8F1
:102DC00004FB00BF98AA0000E806002000B587B009
:102DD00001900B468DF80330019B1F2B04D93D4910
:102DE00040F22520FEF7B9FC0198FFF77BFE034671
:102DF000002B04D1374940F22620FEF7AEFC0198A3
:102E0000FFF75EFE0346002B2FD00198FFF7B2FEBE
:102E10000346083B304A134493F958308DF8163076
:102E20009DF816309B098DF815309DF81530032B51
:102E30000BD10198FFF787FD0346002B01D0032338
:102E400000E002238DF8173008E09DF81530012BC3
:102E500001D1022300E003238DF817309DF81730CD
:102E600019460198FFF741FD30E00198FFF70AFE8F
:102E70000346002B2AD00198FFF77CFE03460493FB
:102E8000049B9BB240339BB29B00ADF80E30049B79
:102E90001846FFF749FCBDF80E301846FFF703FC53
:102EA0009DF80330002B11D00198FFF763FE034615
:102EB0001846FFF76DFE0290029B002B06D0012200
:102EC000049B02FA03F31846FFF716FC00BF07B095
:102ED0005DF804FB98AA0000E806002000B595B054
:102EE00000231093002303934FF48073ADF84C300C
:102EF0000123129300230F9321E0BDF84C301846B4
:102F0000FFF7BCFB0346002B0ED01298FFF700FC26
:102F10000346002B08D0BDF84C301846FFF7C3FB22
:102F2000109A129B13431093129B5B001293BDF8EF
:102F30004C300433ADF84C300F9B01330F930F9B93
:102F4000072BDAD94FF4BE70FFF798FB0346002B2E
:102F50000DD04FF4BE70FFF7A6FB109B43F000436B
:102F6000109303AB1A4601210020FFF71FFD109BB1
:102F7000DBB2002B29D00123129300230F9321E011
:102F8000129A109B1340002B16D00F98FFF714FCD9
:102F90000D900F98FFF720FC03468DF833300F9803
:102FA000FFF7F6FD0B900B9B002B05D09DF833200F
:102FB0000B9B11460D989847129B5B0012930F9B39
:102FC00001330F930F9B072BDAD9109B002B80F254
:102FD000EE8000238DF84F300023029300231193DD
:102FE0000AE0119B9B0014AA13444FF0FF3243F8F0
:102FF0004C2C119B01331193119B002BF1D000231A
:103000008DF84F3000230F9378E06B4A0F9B1344E9
:10301000583393F900308DF82B309DF82B3023F086
:10302000C0030993644A0F9B1344583393F900304B
:10303000B3F1FF3F5FD001AB19460998FFF7EAFCF7
:103040000346002B57D09DF82B309B098DF8233079
:103050000998FFF78FFD03461846FFF799FD079083
:10306000079B002B03D19DF82330032B43D19DF800
:103070002330032B04D102AB19460998FFF7E2FC79
:103080000998FFF775FC03468DF81B3003AB194612
:103090000998FFF7BFFC0590059B002B03D09DF816
:1030A0001B30022B06D0059B002B24D19DF81B3032
:1030B000032B20D19DF82330032B13D19DF81B3017
:1030C000022B01D1032300E002238DF813309DF879
:1030D000133019460998FFF708FC9DF84F3001336B
:1030E0008DF84F30079B002B05D09DF82320079BC0
:1030F0001146099898470F9B01330F930F9B052B9F
:1031000083D99DF84F30002B4CD001238DF83B30F4
:103110006B461A4601210020FFF748FC002311935B
:1031200014E0119B9B0014AA134453F8502C119BDC
:103130009B0014A90B4453F8443C9A4203D000234B
:103140008DF83B3005E0119B01331193119B002B4F
:10315000E7D09DF83B30002B03D000238DF84F3093
:1031600020E0002311931AE0119B9B0014AA134442
:1031700053F8502C119B9B0014A90B4443F8442C8A
:10318000119B9B0014AA134453F8482C119B9B00DD
:1031900014A90B4443F84C2C119B01331193119B40
:1031A000002BE1D09DF84F30002B7FF428AF00BFFB
:1031B00015B05DF804FB00BFE806002084B0019064
:1031C0000B46ADF80230BDF80230019A13440022DC
:1031D0001A60BDF80230019A13441B680393039BE5
:1031E00000BF04B0704782B001900B46ADF80230CA
:1031F000BDF80230019A13441B68002B14BF012351
:103200000023DBB2184602B0704782B001900091F3
:10321000019B009AC3F8042300BF02B0704782B03C
:1032200001900091019B009AC3F8082300BF02B0EF
:10323000704782B00190019B0122C3F8002500BFB6
:1032400002B0704784B00390029101920093039BF7
:10325000029AC3F80825039B019AC3F80C25039B27
:10326000009AC3F8102500BF04B0704782B00190E7
:103270000B468DF803309DF80320019BC3F81C25F5
:1032800000BF02B0704782B00190019BD3F818359F
:10329000DBB2184602B0704782B001900091009AEC
:1032A000019BC3F8242500BF02B0704784B0019091
:1032B0000B468DF8033013468DF802309DF802302E
:1032C000002B14BF01230023DBB203939DF80330CE
:1032D000022B08D0032B0BD0012B0ED1039B43F004
:1032E000020303930AE0039B43F00403039305E006
:1032F000039B43F00603039300E000BF019B039A86
:10330000C3F8542500BF04B07047000000B583B077
:103310000190019B1B681F2B04D905494FF4E870ED
:10332000FEF71BFA4FF0A043184603B05DF804FB0C
:1033300034AB000000B585B00190084611461A462E
:1033400003468DF803300B468DF8023013468DF896
:10335000013001AB1846FFF7D9FF03909DF8032019
:103360009DF802305B001A439DF801309B001A4320
:103370009DF818301B0242EA03019DF81C301B0423
:10338000019A1943039B02F5E07243F8221000BF33
:1033900005B05DF804FB00B585B0039000230193F0
:1033A000002300930023012201210398FFF7C2FFAD
:1033B00000BF05B05DF804FB00B585B003900B4677
:1033C0008DF80B309DF80B20002301930023009310
:1033D0001346002200210398FFF7ACFF00BF05B0A1
:1033E0005DF804FB00B585B0019001AB1846FFF70E
:1033F0008DFF0390019B012202FA03F31946039803
:1034000000F018F800BF05B05DF804FB00B585B00A
:10341000019001AB1846FFF779FF0390019B012251
:1034200002FA03F31946039800F00EF800BF05B046
:103430005DF804FB82B001900091019B009AC3F8F3
:10344000082500BF02B0704782B001900091019B37
:10345000009AC3F80C2500BF02B0704700B58DB0CC
:103460000590049103920293049B002B03D15F49C2
:10347000A820FEF772F9059B5B791A461346DB001C
:1034800013449B005A4A13440B930B9B1B7F002B46
:1034900003D008230A930A9BA4E00B9B039A1A60AB
:1034A0000B9B029A5A60049B1B7B012B05D8049B43
:1034B0001B781846FFF7AAFF04E0049B1B78184608
:1034C000FFF790FF049B1B7818460023019300230D
:1034D0000093002300220121FFF72CFF049B5B785F
:1034E000FF2B09D0049B5B7809930998FFF78EFFA7
:1034F0000998FFF750FF02E04FF0FF330993049B58
:103500009B78FF2B07D0049B9B7808930121089898
:10351000FFF752FF02E04FF0FF330893049BDB7884
:10352000FF2B09D0049BDB781846FFF75BFF049B59
:10353000DB781846FFF72FFF059B5B791946049B44
:10354000D8782B4A0B46DB000B449B0013441E33F8
:1035500002461A70059B1B680793049B1B7819464B
:10356000089B099A0798FFF76DFE049B9B68194614
:103570000798FFF791FE049B197B049B5B7B1A461F
:103580000798FFF793FE059B5B791946049B5879D2
:10359000174A0B46DB000B449B0013441F330246C3
:1035A0001A700B9B1B68002B03D004210798FFF7B0
:1035B0002CFE0798FFF73DFE0B9B1B68002B08D0E5
:1035C000059B93F90420049B1B7919461046FFF7CD
:1035D0002BF80B9B00225A770B9B01221A770023B2
:1035E0000A930A9B18460DB05DF804FB90AB0000EF
:1035F0004807002000B589B003900291009313465C
:103600008DF80730029B0493009B06939DF80730CA
:103610008DF814309DF828308DF81C3004AB002252
:103620001946039800F00EF90346184609B05DF8F4
:1036300004FB00B583B00190019B9B7FFF2B04D05E
:10364000019B9B7F1846FFF7CDFE019B00225A7716
:10365000019B00221A72019B1B68019A02F108006B
:10366000019A52681146984700BF03B05DF804FB09
:1036700000B585B0019000910198FFF704FE034664
:103680008DF80D30009B93F82020009B1B7E9A4202
:1036900009D2009B5B69009A92F8202013449DF8A0
:1036A0000D20D2B21A70009B93F820300133DAB2A9
:1036B000009B83F82020009B93F820309BB20133BD
:1036C000ADF80E30009B93F8213003F00403DBB219
:1036D000002B17D0009B1B7C9BB2BDF80E209A429A
:1036E00004D2BDF80E30DAB2009B1A74009B1B7E28
:1036F0009BB2BDF80E209A4204D2BDF80E30DAB269
:10370000009B1A76009B1B7C9BB2BDF80E209A4250
:103710000BD2009BDA68BDF80E3013441B781946B3
:103720000198FFF7A3FD012322E0009B1B7E9BB2C3
:10373000BDF80E209A4207D2009BDB7F1946019804
:10374000FFF794FD012313E0009B93F82020009BDA
:103750001B7C9A4206D3009B93F82020009B1B7E83
:103760009A4201D2012300E0002303F00103DBB2FF
:10377000184605B05DF804FB00B585B003900291D2
:103780000192029B002283F8202004210398FFF776
:1037900046FD4FF484710398FFF710FD019B1B79E0
:1037A000002B03D0019B1B681B7801E0029BDB7F91
:1037B00019460398FFF75AFD019B1B79012B08D985
:1037C000019B1B6801331B7819460398FFF74EFDD8
:1037D00009E0019B1B7B012B05D9029BDB7F19466E
:1037E0000398FFF743FD029B1B68002B04D00421C4
:1037F0000398FFF70AFD20E000BF4FF4847103989F
:10380000FFF7F1FC034683F00103DBB2002BF4D198
:103810004FF484710398FFF7D1FC02990398FFF7E6
:1038200027FF0346002BE7D1029B9B7FFF2B04D091
:10383000029B9B7F1846FFF7D5FD00BF05B05DF8E2
:1038400004FB000010B586B0039002910192039B27
:103850005B791A461346DB0013449B003B4A134432
:103860000593059B1B7F002B04D1394940F257205B
:10387000FDF773FF029B1B68002B08D1029B1B798D
:10388000002B04D032494FF41670FDF766FF029BFF
:103890009B68002B08D1029B1B7B002B04D02C497A
:1038A00040F25920FDF759FF00230493059B5B7FED
:1038B000DBB2002B03D011230493049B42E0059B51
:1038C0001B68002B07D0019B03F01403002B02D1CF
:1038D000059B01225A77059B029A03F10C041346BB
:1038E0000FCB84E80F00059A92F821306FF30003A4
:1038F00082F82130059A92F821306FF3410382F863
:103900002130059A92F821306FF3820382F821303A
:10391000059B9B7FFF2B04D0059B9B7F1846FFF7E1
:1039200075FD019B002B05D0059B00225A770623CD
:10393000049306E0039B1B68029A05991846FFF75B
:103940001BFF049B184606B010BD00BF48070020AF
:1039500090AB000000B583B001900091009B1B6804
:10396000002B04D10D494FF43570FDF7F6FE4FF4EE
:1039700084710198FFF722FC00990198FFF778FE07
:10398000034683F00103DBB2002B02D00098FFF75F
:1039900050FE00BF03B05DF804FB00BF90AB000019
:1039A00000B583B0044B019301990448FFF7D2FF9F
:1039B00000BF03B05DF804FB480700200030004062
:1039C00082B003468DF807309DF8073003F01F02E0
:1039D00006499DF907305B09012000FA02F2203305
:1039E00041F8232000BF02B0704700BF00E100E0B3
:1039F00084B001900B46ADF80230BDF80230019A58
:103A0000134400221A60BDF80230019A13441B6867
:103A10000393039B00BF04B0704782B001900B4634
:103A2000ADF80230BDF80230019A13441B68002B38
:103A300014BF01230023DBB2184602B0704782B0E6
:103A400001900091019B009AC3F8042300BF02B0CB
:103A5000704782B001900091019BD3F80423009B32
:103A60001340002B14BF01230023DBB2184602B021
:103A7000704782B001900091019B009AC3F808231F
:103A800000BF02B0704784B00190019BD3F880342E
:103A90000393019B039AC3F88024039B184604B048
:103AA000704782B00190019B0422C3F8002500BF3B
:103AB00002B0704782B00190019B0022C3F800253C
:103AC00000BF02B0704784B0039002910192039B43
:103AD000019AC3F81425039B029AC3F80C2500BF72
:103AE00004B0704700B583B001904FF0FF324FF043
:103AF000FF310198FFF7E7FF00BF03B05DF804FB5B
:103B000082B00190019BD3F80C35184602B0704783
:103B100082B00190019BD3F81435184602B070476B
:103B200082B00190019BD3F80835184602B0704767
:103B300082B00190019BD3F81035184602B070474F
:103B400084B0039002910192039B029AC3F8082566
:103B5000039B019AC3F8102500BF04B0704700B55D
:103B600083B001904FF0FF324FF0FF310198FFF723
:103B7000E7FF00BF03B05DF804FB82B00190019B3A
:103B8000D3F81835DBB2184602B0704782B0019006
:103B90000B468DF803309DF80320019BC3F81C25CC
:103BA00000BF02B0704782B001900B468DF8033021
:103BB0009DF80330019A134401221A6000BF02B03D
:103BC000704782B001900B468DF8033013468DF894
:103BD00002309DF803209DF802301343DBB21A46F1
:103BE000019BC3F86C2500BF02B0704782B0019002
:103BF0000091019B009AC3F8242500BF02B07047D2
:103C000084B001900B46ADF80230BDF80230019A45
:103C1000134400221A60BDF80230019A13441B6855
:103C20000393039B00BF04B0704782B001900B4622
:103C3000ADF80230BDF80230019A13441B68002B26
:103C400014BF01230023DBB2184602B0704782B0D4
:103C500001900091019BD3F80022009BDB431A40A6
:103C6000019BC3F8002200BF02B0704782B00190F0
:103C70000091019B009AC3F8042300BF02B0704773
:103C800082B001900091019B009AC3F8082300BF05
:103C900002B0704784B00190019BD3F88034039345
:103CA000019B039AC3F88024039B184604B0704715
:103CB00082B00190019B0822C3F8002500BF02B02A
:103CC000704782B00190019B0022C3F8002500BF1D
:103CD00002B0704784B0039002910192039B029A54
:103CE000C3F80C25039B019AC3F8142500BF04B048
:103CF000704700B583B001904FF0FF324FF0FF31B5
:103D00000198FFF7E7FF00BF03B05DF804FB82B046
:103D10000190019BD3F80C35184602B0704782B071
:103D20000190019BD3F81435184602B0704782B059
:103D30000190019BD3F80835184602B0704782B055
:103D40000190019BD3F81035184602B0704784B03B
:103D5000039002910192039B029AC3F80825039BEA
:103D6000019AC3F8102500BF04B0704700B583B0B6
:103D700001904FF0FF324FF0FF310198FFF7E7FF5E
:103D800000BF03B05DF804FB82B001900B468DF8D4
:103D900003309DF80330019A134401221A6000BFDA
:103DA00002B0704782B001900B468DF80330134685
:103DB0008DF802309DF803209DF802301343DBB2EA
:103DC0001A46019BC3F86C2500BF02B0704782B051
:103DD00001900091019B009AC3F8242500BF02B016
:103DE000704784B00390029113468DF80730029A11
:103DF000039BC3F844259DF80720039BC3F848257F
:103E000000BF04B0704782B00190019BD3F84C35DD
:103E1000184602B0704782B00190019BD3F83C3540
:103E2000184602B0704700B583B003468DF80730DE
:103E30009DF907301846FFF7C3FD00BF03B05DF8DA
:103E400004FB84B00190019B1B0B8DF80F309DF992
:103E50000F30184604B0704782B00190019B03F008
:103E60006043B3F1005F0CBF01230023DBB21846AF
:103E700002B0704700B583B00190019B1B681F2BF7
:103E800004D905494FF4E870FDF767FC4FF0A043F3
:103E9000184603B05DF804FB2CAC000000B585B0FB
:103EA0000190084611461A4603468DF803300B462A
:103EB0008DF8023013468DF8013001AB1846FFF73C
:103EC000D9FF03909DF803209DF802305B001A4350
:103ED0009DF801309B001A439DF818301B0242EAFE
:103EE00003019DF81C301B04019A1943039B02F542
:103EF000E07243F8221000BF05B05DF804FB00B586
:103F000085B0039000230193002300930023012236
:103F100001210398FFF7C2FF00BF05B05DF804FB65
:103F200000B585B003900B468DF80B309DF80B2043
:103F300000230193002300931346002200210398DD
:103F4000FFF7ACFF00BF05B05DF804FB00B585B01E
:103F500003900023019300230093002301220021FA
:103F60000398FFF79BFF00BF05B05DF804FB00B5A9
:103F700085B0019001AB1846FFF77CFF0390019BD1
:103F8000012202FA03F31946039800F004F800BF77
:103F900005B05DF804FB82B001900091019B009A8E
:103FA000C3F8082500BF02B07047000000B583B019
:103FB00001900091009B1B68B3F1FF3F09D0009B6B
:103FC0001B681846FFF7D3FF009B1B681846FFF7D6
:103FD00096FF009B5B68B3F1FF3F05D0009B5B68D9
:103FE00000211846FFF79CFF019B1B79464A5B01A5
:103FF00013441C331B78002B41D0019B1A68009B93
:104000009B6919461046FFF7E2FE019B1868009B6A
:10401000597D009B1B7D1A46FFF7C4FE019B186863
:10402000009B1968009B5B681A46FFF753FE009BD4
:104030001B7D012B64D1009B9B68B3F1FF3F05D032
:10404000009B9B6800211846FFF76AFF009BDB6816
:10405000B3F1FF3F09D0009BDB681846FFF787FFED
:10406000009BDB681846FFF74AFF019B1868009B1E
:10407000D968009B9B681A46FFF769FE40E0019BE8
:104080001A68009B9B6919461046FFF7AFFD019B1C
:104090001868009B597D009B1B7D1A46FFF791FD18
:1040A000019B1868009B1968009B5B681A46FFF724
:1040B0000AFD009B1B7D012B22D1009B9B68B3F165
:1040C000FF3F05D0009B9B6800211846FFF728FFA3
:1040D000009BDB68B3F1FF3F09D0009BDB6818460B
:1040E000FFF745FF009BDB681846FFF708FF019BC1
:1040F0001868009BD968009B9B681A46FFF720FD53
:1041000000BF03B05DF804FB6C07002000B583B06E
:1041100001900B468DF80330019B1B792D4A5B0102
:1041200013441C331B78002B2FD0019B1B684FF4CA
:1041300088711846FFF764FD019B1B684FF490716E
:104140001846FFF75DFD019B1B684FF492711846FE
:10415000FFF756FD019B1B684FF4A2711846FFF74D
:104160004FFD019B1B681C491846FFF77FFD019B13
:104170001B681846FFF765FE03461A469DF8033094
:1041800019461046FEF750FA20E0019B1B684FF4D9
:104190008E711846FFF72CFC019B1B684FF4A2712F
:1041A0001846FFF725FC019B1B680C491846FFF7D2
:1041B00046FC019B1B681846FFF743FE03461A4660
:1041C0009DF8033019461046FEF72EFA00BF03B0E3
:1041D0005DF804FB6C070020100302008000020061
:1041E00000B583B00190019B1B79154A5B01134414
:1041F0001C331B78002B0FD0019B1B6811491846FC
:10420000FFF73EFD019B1B681846FFF71AFE0346A9
:104210001846FFF708FE0EE0019B1B680A49184686
:10422000FFF727FC019B1B681846FFF70AFE0346B1
:104230001846FFF7F8FD00BF03B05DF804FB00BFB0
:104240006C070020100302008402020000B587B052
:104250000190019B1B79364A5B0113441C331B7888
:10426000002B22D0019B1B681846FFF750FD0590DC
:10427000019B1B681846FFF752FD0490019B1B68C9
:104280001846FFF754FD0390019B1B681846FFF783
:1042900056FD0290019B1B681846FFF72AFD019B03
:1042A0001B681846FFF762FD21E0019B1B6818465A
:1042B000FFF726FC0590019B1B681846FFF728FCBA
:1042C0000490019B1B681846FFF72AFC0390019B92
:1042D0001B681846FFF72CFC0290019B1B681846D0
:1042E000FFF700FC019B1B681846FFF738FC059B95
:1042F000B3F1FF3F02D00598FFF728FE049BB3F10E
:10430000FF3F02D00498FFF721FE029BB3F1FF3F6D
:1043100002D00298FFF71AFE039BB3F1FF3F02D0D1
:104320000398FFF713FE00BF07B05DF804FB00BF62
:104330006C07002000B583B00190019B1B790B4AEC
:104340005B0113441C331B78002B05D0019B1B68B9
:104350001846FFF7ADFC04E0019B1B681846FFF709
:10436000A0FB00BF03B05DF804FB00BF6C0700209A
:1043700000B583B00190019B1B790B4A5B0113448C
:104380001C331B78002B05D0019B1B681846FFF7D8
:1043900098FC04E0019B1B681846FFF78BFB00BFED
:1043A00003B05DF804FB00BF6C07002000B587B0C8
:1043B000039002910192029B002B04D122494FF4F9
:1043C0008870FDF7CAF9039B1B795B011F4A1344F0
:1043D000059300230493059BDB7E002B03D0082369
:1043E0000493049B2BE0029B5A7F059B1A7702994A
:1043F0000398FFF7DBFD059B019A5A60029B1A693F
:10440000059B1A60059B5B68002B05D0029B1B7FF8
:1044100019460398FFF77AFE0398FFF78BFF059B79
:104420000022DA75059B00221A76059B00229A75F8
:10443000059B0122DA76059B00229A76049B18469A
:1044400007B05DF804FB00BF8CAC00006C070020D7
:1044500000B585B00190019B1B795B010C4A1344A8
:1044600003930198FFF784FF039B5B68002B02D046
:104470000198FFF7B5FE0198FFF7E8FE039B0022C5
:10448000DA76039B00225A6000BF05B05DF804FB9A
:104490006C07002000B585B0019000914FF48E713B
:1044A0000198FFF7A5FA009B9B68009A928A92B246
:1044B00013441B788DF80F30009B9B8A9BB201330D
:1044C0009AB2009B9A829DF80F3019460198FFF727
:1044D0005DFB00BF05B05DF804FB000000B585B0D2
:1044E0000190019B1B795B01344A13440293002322
:1044F0000393019B1B684FF48E711846FFF778FAFF
:10450000019B1B6808211846FFF74DFB019B1B68A8
:1045100002991846FFF7BEFF029B5B68002B48D14B
:104520001FE000BF019B1B684FF48E711846FFF718
:1045300074FA034683F00103DBB2002B05D0029B23
:104540009B8A9BB2B3F5807FECD1029B9B8A9BB286
:10455000B3F5807F05D0019B1B6802991846FFF7D1
:1045600099FF029B9B8A9AB2029B9B7D9BB29A42C7
:10457000D7D3029B9B8A9BB2B3F5807F02D10F23D6
:10458000039313E000BF019B1B684FF48E71184624
:10459000FFF743FA034683F00103DBB2002BF2D1AD
:1045A000019B1B680C211846FFF7FDFA029B0022B5
:1045B0009A75039B184605B05DF804FB6C07002054
:1045C00000B587B00190019B1B795B012A4A134417
:1045D000049300230593019B1B684FF490711846C8
:1045E000FFF70EFB019B1B684FF4AC711846FFF7F9
:1045F00007FB019B1868049B9968049B9B7D1A46E6
:10460000FFF7EFFB019B1B6808211846FFF7BCFB77
:10461000049B5B68002B2AD1019B1B684FF49071AF
:104620001846FFF702FB03468DF80F30019B1B680D
:104630004FF4AC711846FFF7F8FA03468DF80E30C8
:104640009DF80F3083F00103DBB2002B06D09DF8FC
:104650000E3083F00103DBB2002BDDD19DF80E306C
:10466000002B01D00F230593049B00229A75059B14
:10467000184607B05DF804FB6C07002000B587B052
:104680000390029113468DF80730039B1B795B0161
:104690002E4A13440493049BDB7E012B04D02C4947
:1046A0004FF4CC70FDF759F89DF80730002B04D17A
:1046B000274940F29910FDF750F8029B002B04D1D6
:1046C00023494FF4CD70FDF748F8039B1B791F4A2F
:1046D0005B0113441C331B78002B0CD00298FFF7AE
:1046E000BBFB034683F00103DBB2002B03D0102396
:1046F0000593059B25E0039800F02CF80346002B5A
:1047000003D011230593059B1BE0049B9DF8072014
:104710009A75049B029A9A60049B00229A82039BDA
:104720001B790A4A5B0113441C331B78002B04D00D
:104730000398FFF745FF034603E00398FFF7CEFE1B
:104740000346184607B05DF804FB00BF6C07002065
:104750008CAC000082B00190019B1B79064A5B0182
:10476000134416331B78002B14BF01230023DBB244
:10477000184602B0704700BF6C07002010B582B029
:1047800001900091009BDB7D002B08D14FF48471D8
:104790000198FFF72DF90198FFF7EFF916E04FF4B4
:1047A00084710198FFF724F9009BDB68009A527E20
:1047B000D2B29C180198FFF7E0F903462370009BE2
:1047C0005B7EDBB20133DAB2009B5A7602B010BDD9
:1047D00000B589B003900B4601928DF80B30012390
:1047E0008DF810309DF80B308DF81830019B059333
:1047F000039B5B68039A116804AA1046984700BFA0
:1048000009B05DF804FB00B587B001900B468DF848
:10481000033000238DF808309DF803308DF81030F8
:10482000019B9B680393019B00229A75019B5B6827
:10483000019A116802AA1046984700BF07B05DF8B8
:1048400004FB00B589B0019000914FF4007101980C
:10485000FFF7FFF80346002B39D04FF4927101980F
:10486000FFF7DBF80346002B31D04FF4927101982B
:10487000FFF7BEF84FF401710198FFF7FAF8009BBB
:104880009B7E83F00103DBB2002B03D0042101984F
:10489000FFF789F902238DF808300198FFF7F3F844
:1048A00003460593009BDB7D8DF81030009BDB6891
:1048B0000393009B0022DA75009B00221A76009B6E
:1048C0005B68009A116802AA1046984756E00421D6
:1048D0000198FFF7BEF80346002B4FD04FF48471C8
:1048E0000198FFF79AF80346002B47D000990198EA
:1048F000FFF744FF009BDA7D009B5B7EDBB29A42B0
:104900003CD1009B1B7E002B1CD0009BDB680793D7
:10491000009B5B7E8DF81B30009B1A7E009BDA7536
:10492000009B1A69009BDA60009B00221A76009BAC
:1049300000225A769DF81B30079A19460098FFF717
:1049400047FF1BE0009B9B7E83F00103DBB2002B43
:1049500003D004210198FFF726F94FF40171019863
:10496000FFF787F8009B0022DA75009B5B7ED9B2C7
:10497000009BDB681A460098FFF72AFF4FF48E7100
:104980000198FFF74AF80346002B1BD0009B9B8A37
:104990009AB2009B9B7D9BB29A4204D200990198E7
:1049A000FFF778FD0EE04FF48E710198FFF720F8C5
:1049B000009B9B7D002B05D0009B9B7D194600989A
:1049C000FFF721FF4FF4A2710198FFF726F8034685
:1049D000002B1CD04FF4A2710198FFF709F8009B3F
:1049E0009B7E002B03D000210198FFF7DCF8009B91
:1049F000DB7D002B0BD0009B0022DA75009B5B7ED9
:104A0000D9B2009BDB681A460098FFF7E1FE00BFB1
:104A100009B05DF804FB00B589B0019000914FF436
:104A200092710198FFF701F90346002B24D04FF44F
:104A300092710198FFF7E4F802238DF8083001988D
:104A4000FFF728F9034605930198FFF7E4F90346B9
:104A5000DBB28DF81030009BDB680393009B0022D3
:104A6000DA75009B00221A76009B5B68009A116839
:104A700002AA1046984741E04FF488710198FFF769
:104A8000D4F80346002B39D04FF488710198FFF712
:104A9000B7F80198FFF7BFF903468DF81F30009B68
:104AA000DB7D9DF81F209A4228D1009B1B7E002BA6
:104AB00019D0009BDB68069320210198FFF7C7F807
:104AC000009B1A7E009BDA75009B1A69009BDA60D6
:104AD000009B00221A769DF81F30069A194600980E
:104AE000FFF776FE0AE0009B0022DA75009BDA6889
:104AF0009DF81F3019460098FFF76AFE4FF4A27127
:104B00000198FFF792F80346002B16D04FF4A271DC
:104B10000198FFF775F8009BDB7D002B0DD0009B03
:104B20000022DA750198FFF776F90346D9B2009BA7
:104B3000DB681A460098FFF74BFE4FF4907101981E
:104B4000FFF773F80346002B11D04FF490710198D2
:104B5000FFF756F8009B9B7D002B08D00198FFF7CC
:104B600052F90346DBB219460098FFF74CFE00BF2E
:104B700009B05DF804FB000008B5074B1B7F002B54
:104B800004D005490548FFF746FF03E00249034802
:104B9000FFF757FE00BF08BD6C0700200020004053
:104BA00082B001904FF08042019BC2F8043300BFF5
:104BB00002B0704782B001904FF08042019BC2F872
:104BC000083300BF02B0704782B003468DF807304B
:104BD0009DF8073003F1804301221A6000BF02B044
:104BE000704784B00346ADF80630BDF8063003F1D7
:104BF000804300221A60BDF8063003F180431B6831
:104C00000393039B00BF04B0704782B00346ADF826
:104C10000630BDF8063003F180431B68002B14BF3B
:104C200001230023DBB2184602B0704782B003466E
:104C30008DF807309DF807304FF0804203F00303F2
:104C4000C2F8183500BF02B07047000082B00346BA
:104C50008DF807300A4A9DF907305B0952F8232086
:104C60009DF8073003F01F03012101FA03F31340FD
:104C7000002B14BF01230023DBB2184602B070479B
:104C800000E100E008B50020FFF7E0FF034683F0F5
:104C90000103DBB2002B03D007210020FDF7C4FC89
:104CA00000BF08BD08B54FF48270FFF79AFF0220DD
:104CB000FFF776FF0820FFF787FF00BF08BD08B5A4
:104CC0004FF48070FFF78DFF0120FFF769FF002090
:104CD000FFF77AFF00BF08BD00B583B00023019342
:104CE0000F4B1B78002B02D08523019313E00C4B54
:104CF00000229A600A4B00225A60094B00221A6176
:104D0000074B0022DA60FFF7BDFF0120FFF78EFF9F
:104D1000034B01221A70019B184603B05DF804FB97
:104D20008C07002084B001900091019B1B680393C5
:104D300006E0039A009B9A420DD0039B1B680393E5
:104D4000039B002BF5D1019B1A68009B1A60019B05
:104D5000009A1A6000E000BF04B0704784B0019070
:104D6000019B1B680393039B002B03D0039B1A68D2
:104D7000019B1A60039B184604B0704700B583B0CE
:104D80000190224B1B78002B03D12149FB20FCF71B
:104D9000E4FC1E4B9B78DBB2002B12D0019B002B56
:104DA00003D0019B5B68012098470020FCF78EFC34
:104DB000164BDB680133154AD3600020FCF79AFCE0
:104DC00017E00020FCF782FC019B002B03D0019927
:104DD0001048FFF7A7FF0D4BDB68002B01D1FFF751
:104DE00061FF0A4BDB680133084AD3600020FCF7FF
:104DF00081FC064BDB68002B04D1054940F21710FB
:104E0000FCF7ABFC00BF03B05DF804FB8C0700208F
:104E10002CAD00009C07002000B583B00190234B0F
:104E20001B78002B04D122494FF49C70FCF795FCB1
:104E30001E4B5B78DBB2002B12D0019B002B03D002
:104E4000019B5B68002098470020FCF73FFC174B54
:104E50005B680133154A53600020FCF74BFC17E0F8
:104E60000020FCF733FC019B002B03D00199114873
:104E7000FFF758FF0D4B5B68002B01D1FFF71FFFB9
:104E80000A4B5B680133094A53600020FCF732FC8F
:104E9000064B5B68002B04D105494FF4AA70FCF760
:104EA0005CFC00BF03B05DF804FB00BF8C07002072
:104EB0002CAD00009407002000B585B003468DF8A6
:104EC00007309DF80730002B02D10C4B039301E013
:104ED0000B4B03930398FFF741FF0290029B002BBB
:104EE00006D0029B5B689DF8072010469847F1E7C3
:104EF00000BF00BF05B05DF804FB00BF94070020B1
:104F00009C07002008B54FF48070FFF77EFE034633
:104F1000002B0CD04FF48070FFF763FE0120FFF7E9
:104F200049FE0E4B01225A700020FFF7C5FF4FF4D7
:104F30008270FFF76AFE0346002B0CD04FF482709C
:104F4000FFF74FFE0220FFF735FE044B01229A7057
:104F50000120FFF7B1FF00BF08BD00BF8C07002094
:104F600000B583B01F4B0193019B03221A61019B83
:104F700003225A61019B1C4A9A61019B1B4ADA6118
:104F8000019B4FF400621A62019B00229A62019B0E
:104F900000225A62019B0022DA62019B124A1A66C1
:104FA000019B134A5A66019B10229A66019B0022BC
:104FB0001A67019B0022DA66019B00225A67019B57
:104FC00007330C49184604F027FF019B0A4918468D
:104FD00004F022FF019B20229A7100BF03B05DF80C
:104FE00004FB00BFA0070020C8AD00004808002057
:104FF00048100020D4AD0000D8AD000000B589B045
:1050000003900291019200230693039BDB680593B2
:10501000039B1B690493049A059B9A4205D9049A41
:10502000059BD31A013B079307E0039B9A680499F9
:10503000059BCB1A1344013B0793039B9A68059B7E
:10504000D31A079A934228BF13460793079A019BE6
:10505000934228BF13460793039B5A68059B13444A
:10506000079A0299184604F07BFE069A079B1344A0
:105070000693029A079B13440293019A079BD31A43
:105080000193059A079B13440593039B9B68059A1C
:105090009A4201D100230593039B059ADA60019B94
:1050A000002BB5D1069B184609B05DF804FB00B58E
:1050B00089B0039002910192039BDB680793039BE5
:1050C0009A68079BD31A0693069A019B9A420ED9B7
:1050D000039B5A68079B1344019A0299184604F0EF
:1050E0003FFE079A019B1A44039BDA601AE0069B75
:1050F0000593039B5A68079B1344059A0299184627
:1051000004F02EFE019A069BD31A0593039B586860
:10511000029A069B1344059A194604F021FE039B4C
:10512000059ADA6000BF09B05DF804FB86B0019013
:10513000019B1B690493019BDB680393049A039B07
:105140009A4208D8019B9A68039BD21A049B134485
:10515000013B059304E0049A039BD31A013B05939A
:10516000059B184606B0704700B589B003900291C0
:105170000192029B0693039B5A1C13465B00134447
:10518000DB001F4A13440593059B5B69012B17D075
:10519000002B02D0022B23D029E00598FFF7C6FF91
:1051A0000490049A019B9A4202D20023079321E0C3
:1051B000019B0793019A06990598FFF778FF19E07C
:1051C0000598FFF7B3FF0490019A049B934228BF10
:1051D00013460793079A06990598FFF768FF09E0B9
:1051E000019A06990598FFF709FF079002E000234E
:1051F000079300BF079B184609B05DF804FB00BF8A
:10520000A007002008B5FFF7ABFE00BF08BD0000F7
:10521000BFF34F8F054BDB6803F4E0620349044B97
:105220001343CB60BFF34F8F00BFFDE700ED00E0FD
:105230000400FA05024B034A1A6000BF704700BF22
:10524000A00000200090D00308B500F05BF90346F1
:10525000002B06D09A4B1B681B0A9A4A03F01F03C7
:10526000136000F07BF90346002B02D0964B974A5F
:105270001A6000F08FF90346002B06D0944B1B6890
:105280005B0B944A03F00703136000F0AFF9034689
:10529000002B05D0904BDB688F4A23F08073D360DE
:1052A00000F0C0F90346002B0ED04FF080430022DF
:1052B000C3F80C214FF080430022C3F810214FF0B7
:1052C00080430022C3F8382500F0D8F90346002BAC
:1052D00002D0824B03221A6000F0ECF90346002B47
:1052E0000BD07F4B05221A607E4B01221A607E4B49
:1052F00000221A607D4B3F221A6000F0F7F9034646
:10530000002B76D04FF08053794AD3F80434C2F89A
:1053100020354FF08053764AD3F80834C2F824354C
:105320004FF08053724AD3F80C34C2F828354FF04E
:1053300080536F4AD3F81034C2F82C354FF08053A5
:105340006B4AD3F81434C2F830354FF08053684AB2
:10535000D3F81834C2F834354FF08053644AD3F888
:105360001C34C2F840354FF08053614AD3F82034E2
:10537000C2F844354FF080535D4AD3F82434C2F864
:1053800048354FF080535A4AD3F82834C2F84C3588
:105390004FF08053564AD3F82C34C2F850354FF0B2
:1053A0008053534AD3F83034C2F854354FF0805309
:1053B0004F4AD3F83434C2F860354FF080534C4A2A
:1053C000D3F83834C2F864354FF08053484AD3F8E4
:1053D0003C34C2F868354FF08053454AD3F8403426
:1053E000C2F86C354FF08053414AD3F84434C2F8C8
:1053F000703500F097F90346002B05D03D4B1B6834
:105400003D4A03F04F03136000F0B8F90346002B48
:105410000DD04FF08043D3F8003403F00103002B8C
:1054200005D04FF080436FF00102C3F80024334BE6
:10543000D3F88830314A43F47003C2F88830BFF3A0
:105440004F8FBFF36F8F4FF01023D3F80032002B34
:1054500005DB4FF01023D3F80432002B2BDA284B56
:105460000122C3F8042500BF254BD3F80034002BDC
:10547000FAD04FF010231522C3F8002200BF204BB2
:10548000D3F80034002BFAD04FF010231522C3F8C4
:10549000042200BF1A4BD3F80034002BFAD0184B6B
:1054A0000022C3F8042500BF154BD3F80034002BAD
:1054B000FAD0FFF7ADFEFFF7BDFE00BF08BD00BF8D
:1054C000240300104035014074C007400DF0ADBA10
:1054D000440200103C050040F0ED00E0A005004053
:1054E00010560040885600401856004014560040A0
:1054F00000C0004058020010E40E004000ED00E043
:1055000000E00140124B1B68DBB2062B1DD1114B92
:105510001B6803F00F03002B17D10F4B1B6803F020
:10552000F003302B01D1012310E00B4B1B6803F07B
:10553000F003402B01D1012308E0074B1B6803F067
:10554000F003502B01D1012300E0002318467047DF
:10555000E00F00F0E40F00F0E80F00F00A4B1B68CA
:10556000DBB2062B0DD1094B1B6803F00F03002B98
:1055700007D1074B1B6803F0F003302B01D1012347
:1055800000E0002318467047E00F00F0E40F00F041
:10559000E80F00F0124B1B68DBB2062B1DD1114B3C
:1055A0001B6803F00F03002B17D10F4B1B6803F090
:1055B000F003302B01D1012310E00B4B1B6803F0EB
:1055C000F003402B01D1012308E0074B1B6803F0D7
:1055D000F003502B01D1012300E00023184670474F
:1055E000E00F00F0E40F00F0E80F00F00A4B1B683A
:1055F000DBB2062B0DD1094B1B6803F00F03002B08
:1056000007D1074B1B6803F0F003302B01D10123B6
:1056100000E0002318467047E00F00F0E40F00F0B0
:10562000E80F00F0124B1B68DBB2062B1DD1114BAB
:105630001B6803F00F03002B17D10F4B1B6803F0FF
:10564000F003302B01D1012310E00B4B1B6803F05A
:10565000F003402B01D1012308E0074B1B6803F046
:10566000F003502B01D1012300E0002318467047BE
:10567000E00F00F0E40F00F0E80F00F00A4B1B68A9
:10568000DBB2062B0DD1094B1B6803F00F03002B77
:1056900007D1074B1B6803F0F003302B01D1012326
:1056A00000E0002318467047E00F00F0E40F00F020
:1056B000E80F00F00A4B1B68DBB2062B0DD1094B3B
:1056C0001B6803F00F03002B07D1074B1B6803F087
:1056D000F003302B01D1012300E00023184670476E
:1056E000E00F00F0E40F00F0E80F00F00A4B1B6839
:1056F000DBB2062B0DD1094B1B6803F00F03002B07
:1057000007D1074B1B6803F0F003502B01D1012395
:1057100000E0002318467047E00F00F0E40F00F0AF
:10572000E80F00F0124B1B68DBB2062B1DD1114BAA
:105730001B6803F00F03002B17D10F4B1B6803F0FE
:10574000F003302B01D1012310E00B4B1B6803F059
:10575000F003402B01D1012308E0074B1B6803F045
:10576000F003502B01D1012300E0002318467047BD
:10577000E00F00F0E40F00F0E80F00F0124B1B68A0
:10578000DBB2062B1DD1114B1B6803F00F03002B5E
:1057900017D10F4B1B6803F0F003302B01D101230D
:1057A00010E00B4B1B6803F0F003402B01D10123E9
:1057B00008E0074B1B6803F0F003502B01D10123D5
:1057C00000E0002318467047E00F00F0E40F00F0FF
:1057D000E80F00F000B583B001F0A8F84FF0FF33F8
:1057E0000093172319221A21044800F0EDF900F064
:1057F0005FFA0023184603B05DF804FB4412002052
:1058000000BF704700BF704700B583B00190019B97
:105810001B681F2B04D905494FF4E870FBF79DFF67
:105820004FF0A043184603B05DF804FBE0AD000064
:1058300000B585B00190084611461A4603468DF81A
:1058400003300B468DF8023013468DF8013001AB62
:105850001846FFF7D9FF03909DF803209DF802300A
:105860005B001A439DF801309B001A439DF81830E5
:105870001B0242EA03019DF81C301B04019A1943E4
:10588000039B02F5E07243F8221000BF05B05DF8FB
:1058900004FB00B585B0039000230193002300931F
:1058A0000023012201210398FFF7C2FF00BF05B0CA
:1058B0005DF804FB00B585B003900B468DF80B3006
:1058C0009DF80B2000230193002300931346002230
:1058D00000210398FFF7ACFF00BF05B05DF804FBA3
:1058E00000B585B0019001AB1846FFF78DFF03901E
:1058F000019B012202FA03F31946039800F047F8CE
:1059000000BF05B05DF804FB00B585B0019001ABA8
:105910001846FFF779FF0390019B012202FA03F377
:105920001946039800F03DF800BF05B05DF804FB90
:1059300000B583B001900091009B002B03D101982A
:10594000FFF7E2FF02E00198FFF7CAFF00BF03B0D4
:105950005DF804FB00B585B0019001AB1846FFF778
:1059600053FF0390039800F00AF80246019B22FAC5
:1059700003F303F00103184605B05DF804FB82B0A1
:105980000190019BD3F81035184602B0704782B0E1
:1059900001900091019B009AC3F8082500BF02B056
:1059A000704782B001900091019B009AC3F80C25CA
:1059B00000BF02B07047000000B583B001900B46F5
:1059C0008DF80330074A019B52F82330002B04D096
:1059D000044A019B52F82330984700BF03B05DF89A
:1059E00004FB00BF5810002000B587B0039002915F
:1059F00011461A460B468DF8073013468DF80630CF
:105A0000029B1F2B38D8039B029A1A60039B9DF8B8
:105A100020201A719DF80730002B1FD19DF82030EF
:105A2000002B03D100238DF817300EE09DF82030B5
:105A3000012B03D103238DF8173006E09DF82030A9
:105A4000022B02D101238DF81730039B1B689DF8B0
:105A5000172011461846FFF72DFF04E0039B1B6833
:105A60001846FFF716FF9DF80730012B05D109995D
:105A70000298FFF75DFF00E000BF07B05DF804FB90
:105A800000B58BB0039001930B468DF80B30134695
:105A90008DF80A30039B1B681F2B62D8019B002BDB
:105AA00061D0039B1B683249019A41F823200023EF
:105AB0008DF8163000238DF81730FDF717F90346DF
:105AC00083F00103DBB2002B0CD0FDF7C7F809907F
:105AD000099B0893089B002B04D0264A7121089843
